:020000040800F2
:10000000800C002001010008A1300008812E0008AA
:100010009D30000871030008313C0008000000001A
:10002000000000000000000000000000153600087D
:10003000F703000800000000A53000086D36000836
:100040001B0100081B0100081B0100081B01000820
:100050001B0100081B0100081B0100081B01000810
:100060001B0100081B0100081B01000875030008A4
:100070001B0100081B0100081B0100081B010008F0
:100080001B010008850300081B0100081B01000874
:100090001B0100081B0100081B0100088D07000858
:1000A0001B0100081B0100081B0100081B010008C0
:1000B0001B010008793600081B0100081B0100081D
:1000C0001B0100081B0100081B0100081B010008A0
:1000D0001B010008F53B0008093C00081B01000853
:1000E0001B0100081B0100081B010008DFF80CD0F1
:1000F00000F03AF800480047013D0008800C00205D
:100100000648804706480047FEE7FEE7FEE7FEE7B1
:10011000FEE7FEE7FEE7FEE7FEE7FEE775360008CE
:10012000ED000008202A04DB203A21FA02F0002129
:10013000704721FA02F3D040C2F1200291400843F7
:1001400019467047D2B201E000F8012B491EFBD2DC
:1001500070470022F6E710B513460A4604461946D2
:10016000FFF7F0FF204610BD064C074D06E0E068A3
:1001700040F0010394E8070098471034AC42F6D3EE
:10018000FFF7B8FFC43D0008E43D000870B5044621
:1001900000252068806800F0010018B3206880689E
:1001A00020F001002168886001F0A4FA054613E000
:1001B00001F0A0FA401B02280ED92068806800F0E8
:1001C000010048B1A06A40F01000A062E06A40F06F
:1001D0000100E062012070BD2068806800F001002D
:1001E0000028E5D10020F6E770B505466C6AA06AE4
:1001F00000F05000E0B9A06A40F40070A0622068EE
:10020000806800F46020B0F5602F0DD1207B58B9D4
:10021000A06A20F48070A062A06A00F4805018B92F
:10022000A06A40F00100A062204600F08FFC03E0CD
:10023000206A016B2846884770BD70B505466C6A18
:10024000A06A40F04000A062E06A40F00400E06272
:10025000204600F0B8FC70BD70B50446656A2846BB
:1002600000F0B0FC70BD000038B504460025002049
:1002700000902068806800F0010078BB20688068EA
:1002800040F0010021688860194800681949B0FBF6
:10029000F1F0009002E00098401E009000980028C5
:1002A000F9D101F027FA054619E001F023FA401BC5
:1002B000022814D92068806800F0010078B9A06A8B
:1002C00040F01000A062E06A40F00100E06200BF70
:1002D000002084F8240000BF012038BD05E020681C
:1002E000806800F001000028DFD00020F5E7000062
:1002F0007800002040420F000EB5002000900190D1
:100300000290194819490860811518488160012137
:100310000173002101754FF46021C1610020134970
:10032000486002211148016100F04EFC08B100F064
:1003300093FA08200090012001900720029069465E
:100340000A4800F053FB08B100F086FA092000903B
:10035000022001906946054800F048FB08B100F012
:100360007BFA00F017F80EBD002401407C0000204D
:1003700000BFFEE710B5024800F044FE10BD0000CB
:10038000AC00002010B5024800F03CFE10BD00009B
:10039000F406002008B500BF0A48406940F001009B
:1003A000084948610846406900F00100009000BF1C
:1003B00000BF002211460B2001F022FA0B2001F0B1
:1003C0000FFA08BD00100240704730B590F8405059
:1003D0000124AC40C56B6C60046863604468102CF9
:1003E00004D10468A2600468E16003E00468A160CD
:1003F0000468E26030BD704710B5464800880028A8
:100400007ED0454800785A2879D143484078A528BD
:1004100075D1414880796B2871D13F48C079B628A1
:100420006DD13D48C0783D4908803B480079097846
:1004300040EA0120394908803748807878B900209F
:10044000374908703749087000224FF40051364888
:1004500001F04AF90021354802F0BEF94BE02E4880
:100460008078012813D100202D49087001202D49E2
:100470000870002241032C4801F036F92748008813
:1004800003F0CAFB0021294802F03CF933E022487E
:100490008078022816D1002021490870244800786D
:1004A00048BB02201F490870012201031E4801F0C9
:1004B0001BF91A48008803F0AFFB00211B4802F02B
:1004C00021F918E014488078032808D10120144944
:1004D0000870184908700020174908700BE00E4892
:1004E0008078042807D101200D490870134908704D
:1004F000002011490870084800210160416000E0B7
:1005000003E000200349088002E000200149088040
:1005100010BD00005C0000206200002046000020AA
:100520003300002032000020000C01405C0100205C
:100530000E0000203500002045000020440000206F
:1005400010B5094800F018F8084908700846007806
:1005500030B1084602780449054802F057FC02E031
:1005600000200449087010BD9407002055000020A9
:10057000EC0500205400002070B50546002600243C
:1005800064212846FFF7E5FD1A4800781A490978E2
:10059000884206DA1848007816490978401A86B267
:1005A00010E01448007814490978884208DD1148A1
:1005B0000078C0F1640010490978084486B201E06F
:1005C000304670BD002411E00C480A490978405CAF
:1005D000285508480078401C0649087008460078ED
:1005E000642801DB00200870601C84B2B442EBDB9D
:1005F0003046E6E75600002057000020F8070020AC
:1006000010B50448007820B90348008808B1FFF706
:10061000F3FE10BD5E0000205C00002008B50D4810
:1006200000680068C0F3401098B1002301226946B9
:10063000084802F077FB9DF800000749074A128836
:10064000885406480088401C044908800120044959
:10065000087008BDEC050020620000205C0000204E
:100660005E00002010B50F48007850B1002405E06E
:100670000D49085D00F062F8601CC4B20C2CF7DB79
:100680000FE00A48084B19685A689B68016042608D
:1006900083600C220146064802F0B8FB01200149A4
:1006A000087010BD540000207C070020880700203F
:1006B000EC05002010B5084908680849096803F0EE
:1006C0000DF9322807D903F0FDF80449086000F05D
:1006D00007F8FFF7C7FF10BD4C01002058000020AD
:1006E0005A2012490870A520487011480068000E71
:1006F00088700F480068000CC8700D480088000A18
:1007000008710B48007848710A480088000A88710F
:1007100008480078C87108480078087206480078D0
:1007200048726B208872B620C87270477C07002020
:100730001C00002004000020450000201049114A40
:10074000127888540F490978491C0E4A11701146D5
:100750000978642901DB002111700B490978094AE5
:10076000127891420AD108490978491C064A117049
:1007700011460978642901DB0021117070470000DF
:10078000F8070020570000205600002010B54FF455
:10079000007000F003FE10BD00212C4800780128F5
:1007A00024D12B4800682B4A1268904205D928486A
:1007B0000068284A1268811A40E025480068254AE6
:1007C0001268904210D2234800684EF66022904290
:1007D00008D9204800684FF6FF72101A1C4A1268A8
:1007E00081182BE0002129E000207047174800788D
:1007F000F8B918480068164A1268904205D9154899
:100800000068134A1268811A18E012480068104AFA
:100810001268904210D20E4800684EF66022904254
:1008200008D90B4800684FF6FF72101A094A12687F
:10083000811803E0002101E00020D6E742F21070A9
:10084000814200D900210846CFE70000480000207F
:10085000280000202C00002072B600BFFEE7000038
:100860000021074AD1610749096941F00201054A9F
:10087000116111464861096941F0400111617047F9
:1008800060080020002002400022054BDA61054A82
:10089000126942F00102034B1A61018070470000A7
:1008A000600800200020024000201E49C96801F0B5
:1008B000100139B11C49C96941F002011A4AD161DC
:1008C00040F010001749C96801F0040139B1164918
:1008D000C96941F00101144AD16140F00400114995
:1008E000C96901F0010169B10F49C96941F0040109
:1008F0000D4AD16100BF0B49C96921F00101094AC4
:10090000D16100BF00BF40F20111884206D1054904
:10091000C96921F00101034AD16101E00149C860C0
:1009200000BF7047002002406008002070B50446F8
:1009300000F0E0FE054609E0601C38B124B100F08B
:10094000D9FE401BA04201D9032070BD1248C068E7
:1009500000F001000028EFD10F48C06800F020002F
:1009600020B100BF20200C49C86000BF0A48C06801
:1009700000F0100048B90848C06900F0010020B933
:100980000548C06800F0040018B1FFF78DFF012092
:10099000DBE70020D9E700000020024000B585B069
:1009A00000BF1048806940F008000E498861084681
:1009B000806900F00800009000BF00BF4FF4405075
:1009C00001900120029003900320049001A90648A1
:1009D00000F0F2FC00224FF44051034800F084FE86
:1009E00005B000BD00100240000C014038B50246C1
:1009F00000230020009000BF92F82400012801D1BC
:100A0000022038BD012082F8240000BF4868072872
:100A100012D21068406B0C79641E04EB84051F240D
:100A2000AC40A0430D796D1E05EB85050C68AC400C
:100A300020431468606327E048680D2812D21068CC
:100A4000006B0C79E41F04EB84051F24AC40A04329
:100A50000D79ED1F05EB85050C68AC40204314684B
:100A6000206311E01068C06A0C790D3C04EB84052A
:100A70001F24AC40A0430D790D3D05EB85050C68A6
:100A8000AC4020431468E06208680A2812D310685A
:100A9000C0680C780A3C04EB44050724AC40A04332
:100AA0000D780A3D05EB45058C68AC402043146881
:100AB000E0600FE0106800690C7804EB440507243F
:100AC000AC40A0430D7805EB45058C68AC40204355
:100AD000146820610868102802D00868112827D1FE
:100AE000174C1068A0421ED11068806800F4000006
:100AF000F0B91068806840F400001468A0600868CD
:100B0000102815D10F4800680F4CB0FBF4F000EB33
:100B100080004000009002E00098401E0090009885
:100B20000028F9D104E0906A40F02000906201238F
:100B300000BF002082F8240000BF184661E70000D3
:100B4000002401407800002040420F00184A01684C
:100B500091422CD117490988491C164A118016491F
:100B60000988164A12881144134A1180114649888F
:100B7000124A52881144104A51800E4909880529A9
:100B800015DB114609880B4A128891FBF2F10C4AD9
:100B9000118009494988074A128891FBF2F1084AF5
:100BA00051800021044A11805180024A118070470F
:100BB000002401400C00002008000020F00000206C
:100BC00004000020704770472DE9F04104460027DB
:100BD00000250026A84614B90120BDE8F081A068D0
:100BE00010B1207D00B100BFA06A30B90020E062E2
:100BF00084F82400204600F089F82046FFF7C6FA62
:100C00000746A06A00F01000002873D1002F71D1B0
:100C1000A06A20F4885040F00200A062E169606898
:100C20000843217B40EA41000643A068B0F5807F7D
:100C300002D0A068012802D14FF4807000E00020AB
:100C40000543207D012811D1207B38B9A069401EC1
:100C50004FF4006141EA4030054307E0A06A40F0EC
:100C60002000A062E06A40F00100E0622068406875
:100C700020F4694028432168486020688068214941
:100C80000840304321688860A068B0F5807F02D0BA
:100C9000A068012802D14FF4807000E00020B0F578
:100CA000807F03D1208A401E4FEA00582068C06A26
:100CB00020F4700040EA08002168C862206880685B
:100CC00011490840B04208D10020E062A06A20F03B
:100CD000020040F00100A06211E0A06A20F00200D2
:100CE00040F01000A062E06A40F00100E0620127DD
:100CF00005E0FFE7A06A40F01000A0620127384637
:100D00006BE70000FDF7E1FFFE0E1FFF10B586B098
:100D10000446002002900390049005902849206822
:100D200088424AD100BF2748806940F400702549B5
:100D300088610846806900F40070019000BF00BF20
:100D400000BF0846806940F0040088610846806959
:100D500000F00400019000BF00BF00BF08464069DA
:100D600040F0010048610846406900F00100019030
:100D700000BF00BF03200290039002A9124800F0B8
:100D80001BFB1248124908600020486000211048EF
:100D900081608021C1604900016189004161202199
:100DA00081610021C16100F0FBF908B1FFF754FD3A
:100DB00000BF07482062446200BF06B010BD0000BB
:100DC0000024014000100240000C014008000240D5
:100DD000AC0000202DE9F04104460D4616460027E0
:100DE00057492068884203D056492068884205D177
:100DF0005348001D006800F4702000E00020002827
:100E00007ED100BF94F82400012802D10220BDE861
:100E1000F081012084F8240000BF2046FFF724FA67
:100E20000746002F6DD1A06A40F60161884340F467
:100E30008070A06243492068884209D14048001D63
:100E4000006800F4702008B9012002E0002000E0F2
:100E5000012078B1A06A20F48010A0622068406868
:100E600000F4806000B3A06A20F4005040F4805089
:100E7000A06219E0A06A40F48010A06230492068A6
:100E8000884203D02F492068884205D12C48001D94
:100E9000006800F4806000E0002028B1A06A20F41F
:100EA000005040F48050A062A06A00F4805020B14D
:100EB000E06A20F00600E06201E00020E06200BF8E
:100EC000002084F8240000BF1F48216A88621F4860
:100ED000216AC8621E48216A08636FF00200216817
:100EE00008602068806840F480702168886022680B
:100EF00002F14C0133462A46206A00F085F901E0F0
:100F00001AE014E02068806800F46020B0F5602FDB
:100F100006D12068806840F4A000216888600CE059
:100F20002068806840F480102168886005E000BF78
:100F3000002084F8240000E00127384667E700001D
:100F40000024014000280140E9010008590200087E
:100F50003B02000870B50446002594F821000228E1
:100F600003D00420A063012548E02068006820F039
:100F70000E00216808602068006820F001002168E8
:100F800008601F492068884201D1012026E01C49E1
:100F900014312068884201D110201FE018492831FF
:100FA0002068884201D1801518E015493C3120683D
:100FB000884201D1801411E01149503120688842E3
:100FC00002D14FF4803009E00D4964312068884235
:100FD00002D14FF4801001E04FF0807008490839C9
:100FE0004860012084F8210000BF002084F8200020
:100FF00000BF606B10B12046616B8847284670BD0A
:101000000800024070B50446E06B05682068066879
:1010100094F84010042088402840002846D006F06C
:101020000400002842D02068006800F0200028B9A1
:101030002068006820F00400216808605749206893
:10104000884201D1042027E05449143120688842A5
:1010500001D1402020E0514928312068884201D147
:10106000001519E04D493C312068884202D14FF407
:10107000804011E0494950312068884202D14FF444
:10108000802009E0454964312068884202D14FF44C
:10109000800001E04FF08060404908394860E06A14
:1010A00000287AD02046E16A884776E094F840101C
:1010B000022088402840A0B306F0020088B32068D0
:1010C000006800F0200040B92068006820F00A00A5
:1010D00021680860012084F8210030492068884296
:1010E00001D1022028E02D4914312068884201D125
:1010F000202021E0294928312068884201D140156B
:101100001AE026493C312068884202D14FF4005051
:1011100012E0224950312068884203D14FF4003058
:101120000AE017E01D4964312068884202D14FF47B
:10113000001001E04FF0007018490839486000BF06
:10114000002084F8200000BFA06A30B32046A16AC6
:10115000884722E094F84010082088402840E0B1F9
:1011600006F00800C8B12068006820F00E00216871
:10117000086094F8401001208840E16B486001202D
:10118000A06384F8210000BF002084F8200000BF85
:10119000206B10B12046216B884770BD08000240CB
:1011A0000146002209B901207047164B0868C01A91
:1011B0001423B0FBF3F08000086412480838C863B9
:1011C000022081F821000868026843F6F07082432B
:1011D000D1E901031843CB6818430B6918434B69E5
:1011E00018438B691843CB691843024308680260AF
:1011F00000208863012081F82100002081F8200070
:1012000000BFD1E7080002402DE9F04104460D4639
:1012100016461F464FF0000800BF94F82000012832
:1012200002D10220BDE8F081012084F8200000BF37
:1012300094F8210001282CD1022084F821000020FC
:10124000A0632068006820F00100216808603B4628
:10125000324629462046FFF7B8F8E06A30B12068E8
:10126000006840F00E00216808600BE0206800680C
:1012700020F00400216808602068006840F00A003F
:10128000216808602068006840F00100216808605B
:1012900006E000BF002084F8200000BF4FF00208E5
:1012A0004046BFE70348006940F0800001490861FB
:1012B00000207047002002402DE9FE4F05468B4676
:1012C00017469846012600240020029000BF2448BB
:1012D000007E012802D10220BDE8FE8F01202049B6
:1012E000087600BF4CF25030FFF720FB064686BB65
:1012F000012D02D10120029006E0022D02D1022030
:10130000029001E00420029000241EE02201B94670
:10131000C24648465146FEF705FF80B201900220C2
:1013200000FB04B000900199FFF7AEFA4CF2503088
:10133000FFF7FCFA06460B48006920F00100094956
:10134000086106B104E0601CC4B202988442DDDB8F
:1013500000BF00BF00200249087600BF3046BBE74F
:10136000600800200020024000200849096901F0BF
:10137000800151B10649054A516006495160114644
:10138000096901F0800101B101207047002002408D
:1013900023016745AB89EFCD7047000010B50446C7
:1013A00004480068204020B1024804602046FFF74E
:1013B000F3FF10BD140401402DE9F8470346002255
:1013C00094466EE14FF0010808FA02F4D1F800806B
:1013D00008EA0400A0427DD1DFF8DCA2D1F8048045
:1013E000A8EB0A09D0453AD014DCB8F1030F50D06D
:1013F00009DCB8F1000F31D0B8F1010F1CD0B8F101
:10140000020F49D120E0B8F1110F18D0B8F1120F36
:1014100042D11EE0B9F5881F25D006DCB9F5803F22
:1014200020D0B9F5801F37D11AE0B9F5001F18D0C8
:10143000B9F5041F30D117E0D1F80CC02DE0D1F878
:101440000C8008F1040C28E0D1F80C8008F1080C9D
:1014500023E0D1F80C8008F10C0C1EE000BF00BFA7
:1014600000BF00BF00BF00BFD1F80880B8F1000F77
:1014700002D14FF0040C0BE0D1F80880B8F1010F55
:1014800003D14FF0080C1C6102E04FF0080C5C61C6
:1014900003E04FF0000C00E000BF00BFFF2801D8C0
:1014A000984601E003F104084646FF2802D84FEAB7
:1014B000820803E0A2F108084FEA88084746D6F8F8
:1014C00000804FF00F0909FA07F928EA09080CFA19
:1014D00007F900E088E048EA0908C6F80080D1F87A
:1014E000048008F08058B8F1805F7DD100BFDFF83C
:1014F000CC81D8F8188048F00108DFF8C091C9F80D
:101500001880C846D8F8188008F00108CDF8008087
:1015100000BF00BF4FEAB9384FEA920958F8295086
:101520004FEA82784FEA18794FF00F0808FA09F865
:1015300025EA0805DFF88881434502D14FF000080D
:1015400016E0DFF88081434502D14FF001080FE03B
:10155000DFF87481434502D14FF0020808E0DFF85C
:101560006C81434502D14FF0030801E04FF00408BD
:101570004FEA82794FEA197908FA09F848EA05052D
:10158000DFF84C814FEA920948F82950D1F80480DD
:1015900008F48038B8F5803F0AD1DFF83881D8F8F0
:1015A000008048EA0008DFF82C91C9F8008009E0C3
:1015B000DFF82081D8F8008028EA0008DFF81491CD
:1015C000C9F80080D1F8048008F40038B8F5003F6D
:1015D00010D1DFF8008108F10408D8F8008048EA4B
:1015E0000008DFF8F09000E05AE009F10409C9F8BA
:1015F00000800DE0DFF8DC8008F10408D8F80080F6
:1016000028EA0008DFF8CC9009F10409C9F8008045
:10161000D1F8048008F48018B8F5801F0ED1DFF8E7
:10162000B48008F10808D8F8008048EA0008DFF81C
:10163000A49009F10809C9F800800DE0DFF8948052
:1016400008F10808D8F8008028EA0008DFF884903C
:1016500009F10809C9F80080D1F8048008F40018DD
:10166000B8F5001F0ED1DFF86C8008F10C08D8F82F
:10167000008048EA0008DFF85C9009F10C09C9F81D
:1016800000800DE0DFF84C8008F10C08D8F80080ED
:1016900028EA0008DFF83C9009F10C09C9F800803D
:1016A000521CD1F8008028FA02F8B8F1000F7FF43C
:1016B00089AEBDE8F887000000001110001002405C
:1016C00000080140000C01400010014000140140DE
:1016D0000800014000040140024693680B400BB132
:1016E000012000E0002070470AB1016101E00B0415
:1016F0000361704701480068704700006C000020DB
:1017000003480068034909780844014908607047A4
:101710006C0000207400002010B50848006840F0FC
:10172000100006490860032000F0A8F8002000F02F
:1017300007F800F02BF8002010BD00000020024048
:1017400070B504460E4800784FF47A71B1FBF0F0A2
:101750000C490968B1FBF0F5284600F01FFC08B100
:10176000012070BD102C07D200222146501E00F02F
:1017700047F80548046001E00120F2E70020F0E7A7
:1017800074000020780000207000002008B500BF21
:101790001148806940F001000F498861084680695E
:1017A00000F00100009000BF00BF00BF0846C06904
:1017B00040F08050C8610846C06900F08050009039
:1017C00000BF00BF00BF0549486820F0E06040F05E
:1017D0000070486000BF08BD0010024000000140DA
:1017E00001460846002809DB00F01F0301229A4049
:1017F00043099B0003F1E023C3F8002100BF7047B9
:101800002DE9F05F80460D461646002702F012FAD9
:10181000074639462A46334601F00700C0F1070A59
:10182000BAF1040F02D94FF0040A01E0C0F1070A2F
:10183000D14600F1040ABAF1070F02D24FF0000AB4
:1018400001E0A0F1030AD4464FF0010A0AFA09FAAE
:10185000AAF1010A0AEA020A0AFA0CFA4FF0010B8D
:101860000BFA0CFBABF1010B0BEA030B4AEA0B047E
:101870002146404602F0E6F9BDE8F09F00BF00F0C7
:101880000702064B19684FF6FF031940044B0B4340
:1018900043EA0221014B196000BF70470CED00E0E4
:1018A0000000FA0570B504460D460CB9012070BD64
:1018B0005A48006800F00700A8420ED25748006856
:1018C00020F007002843554908600846006800F0EA
:1018D0000700A84201D00120E9E7207800F00200CB
:1018E00002281DD1207800F00400042805D14C48BE
:1018F000406840F4E0604A494860207800F0080001
:10190000082805D14648406840F460504449486082
:101910004348406820F0F000A1680843404948600F
:10192000207800F0010078B36068012806D13C48B7
:10193000006800F4003090B90120B8E76068022820
:1019400006D13748006800F0007040B90120AEE7CA
:101950003348006800F0020008B90120A7E73048CA
:10196000406820F00300616808432D494860FFF794
:10197000C1FE064609E0FFF7BDFE801B41F288313B
:10198000884202D9032092E707E02548406800F02A
:101990000C006168B0EB810FEDD12048006800F0C9
:1019A0000700A8420ED91D48006820F00700284310
:1019B0001A4908600846006800F00700A84201D0F4
:1019C000012074E7207800F00400042807D11448AF
:1019D000406820F4E060E1680843114948602078DD
:1019E00000F00800082808D10D48406820F4605035
:1019F000216940EAC1000A49486000F03FF80849FF
:101A00004968C1F30311074A515CC84006490860A0
:101A100006480068FFF794FE002048E700200240D7
:101A200000100240AC3D000878000020700000204B
:101A300001480068704700007800002000B5FFF7FB
:101A4000F7FF04494968C1F30221034A515CC840C9
:101A500000BD000000100240BC3D000800B5FFF7CB
:101A6000E7FF04494968C1F3C221034A515CC840F9
:101A700000BD000000100240BC3D0008F0B585B07C
:101A80000FF26C0C9CE8E01001A8A0E8E0101CA587
:101A90002D68009500210022002300240020194D0C
:101AA000696801F00C05F5B1042D02D0082D19D19B
:101AB00001E0154819E001ADC1F38346AC5D01F4C6
:101AC000803555B10F4D6D68C5F340451DF80520B3
:101AD0000D4D6543B5FBF2F302E00C4D04FB05F33D
:101AE000184602E000BF084800BF00BF05B0F0BDC7
:101AF00002030405060708090A0B0C0D0E0F10104F
:101B0000010200000010024000127A0000093D00AE
:101B1000F8B504460CB90120F8BD207800F00100AA
:101B2000002878D0F848406800F00C0004280CD059
:101B3000F548406800F00C00082811D1F2484068D0
:101B400000F48030B0F5803F0AD1EF48006800F41F
:101B5000003000285FD0606800285CD10120DBE7FE
:101B600000BF6068B0F5803F06D1E748006840F4E8
:101B70008030E549086028E0606858B9E2480068AC
:101B800020F48030E04908600846006820F4802096
:101B900008601AE06068B0F5A02F0BD1DA48006841
:101BA00040F48020D84908600846006840F480303E
:101BB00008600AE0D448006820F48030D249086008
:101BC0000846006820F48020086000BF606888B183
:101BD000FFF790FD054606E0FFF78CFD401B6428EB
:101BE00001D9032098E7C848006800F400300028B5
:101BF000F2D010E0FFF77EFD054606E0FFF77AFD24
:101C0000401B642801D9032086E7BF48006800F420
:101C100000300028F2D1207800F00200022857D1CD
:101C2000B948406800F00C0050B1B748406800F077
:101C30000C00082818D1B448406800F4803098B9E6
:101C4000B148006800F0020020B12069012801D0ED
:101C5000012061E7AC48006820F0F800616940EAC3
:101C6000C100A949086033E02069E8B10120A74913
:101C70000860FFF73FFD054606E0FFF73BFD401B10
:101C8000022801D9032047E79F48006800F00200BE
:101C90000028F2D09C48006820F0F800616940EA12
:101CA000C1009949086013E0002098490860FFF7D7
:101CB00021FD054606E0FFF71DFD401B022801D966
:101CC000032029E79048006800F002000028F2D1C4
:101CD000207800F0080008282DD1A069B8B10120B3
:101CE0008B490860FFF706FD054606E0FFF702FD99
:101CF000401B022801D903200EE78348406A00F008
:101D000002000028F2D0012001F0C2FB13E0002005
:101D10007F490860FFF7EEFC054606E0FFF7EAFCA6
:101D2000401B022801D90320F6E67748406A00F0FC
:101D300002000028F2D1207800F00400042873D1BA
:101D400000277148C06900F0805070B900BF6E482C
:101D5000C06940F080506C49C8610846C06900F015
:101D60008050009000BF00BF01276A48006800F45F
:101D70008070B0B96748006840F4807065490860B9
:101D8000FFF7B8FC054606E0FFF7B4FC401B6428EB
:101D900001D90320C0E65F48006800F48070002885
:101DA000F2D000BFE068012806D15748006A40F031
:101DB00001005549086227E0E06858B95248006AB6
:101DC00020F00100504908620846006A20F0040033
:101DD000086219E0E06805280BD14B48006A40F022
:101DE0000400494908620846006A40F001000862A0
:101DF0000AE04548006A20F00100434908620846AD
:101E0000006A20F00400086200BFE068A0B1FFF79C
:101E100071FC054609E0FFF76DFC401B41F288317B
:101E2000884202D9032077E622E03748006A00F0B2
:101E300002000028EFD012E0FFF75CFC054608E046
:101E4000FFF758FC401B41F28831884201D903203A
:101E500062E62D48006A00F002000028F0D1012F50
:101E600005D12948C06920F080502749C86100BFCA
:101E7000E069C8B32448406800F00C00082860D02E
:101E8000E069022848D1002020490866FFF732FCAB
:101E9000054606E0FFF72EFC401B022801D903206F
:101EA0003AE61948006800F000700028F2D1206A74
:101EB000B0F5803F07D11448406820F40030A16895
:101EC000084311494860D4E9080108430E494968AC
:101ED00021F4741108430C49486001200B4908663D
:101EE000FFF708FC054607E03DE0FFF703FC401B59
:101EF000022801D903200FE60348006800F00070B3
:101F00000028F2D02FE00000001002400000424202
:101F10008004424200700040002014490866FFF728
:101F2000E9FB054606E0FFF7E5FB401B022801D967
:101F30000320F1E50E48006800F000700028F2D19F
:101F400011E0E069012800D1E6E50948466806F499
:101F50008031206A814204D106F47011606A8142A6
:101F600001D00120D8E50020D6E500000000424263
:101F700000100240042808D14FF0E021096941F027
:101F800004014FF0E022116107E04FF0E021096900
:101F900021F004014FF0E0221161704770B5044652
:101FA0002546681EB0F1807F01D301200FE0681E36
:101FB0004FF0E02148610F214FF0FF3001F042FE69
:101FC00000204FF0E021886107200861002070BDEB
:101FD0007047704730B502460B4600BF92F83C0090
:101FE000012801D1022030BD012082F83C0000BF51
:101FF000022082F83D00106844681068816824F06F
:1020000070041868044310684460104D1068A842BA
:102010000BD01068B0F1804F07D00D4D1068A8426A
:1020200003D00C4D1068A84205D121F080015868FA
:10203000014310688160012082F83D0000BF00204C
:1020400082F83C0000BF00BFCDE70000002C01403B
:10205000000400400008004010B504460CB90120FF
:1020600010BD94F83D0028B9002084F83C002046BB
:1020700000F026F8022084F83D00211D206801F0C0
:1020800019FB012084F8460000BF84F83E000121BE
:102090003F200155402001554120015500BF00BFA0
:1020A000012084F842004320015544200155452079
:1020B000015500BF012084F83D000020D0E700005A
:1020C00038B504460D492068884215D100BF0C4838
:1020D000C06940F002000A49C8610846C06900F0C2
:1020E0000200009000BF00BF032201211D20FFF766
:1020F00087FB1D20FFF774FB38BD00000004004083
:1021000000100240014691F83D00012801D0012055
:102110007047022081F83D000868C06840F0010067
:102120000B68D860124B086898420BD00868B0F171
:10213000804F07D00F4B0868984203D00E4B0868B9
:1021400098420CD10868806800F00702062A0CD07B
:102150000868006840F001000B68186005E0086836
:10216000006840F001000B6818600020D0E7000014
:10217000002C014000040040000800402DE9F0411F
:1021800004460D4614B90120BDE8F08194F83D00E5
:1021900028B9002084F83C00204600F051F80220C5
:1021A00084F83D002068806844F207018843216874
:1021B0008860211D206801F07DFA2068D0F8088031
:1021C000206886692068076A286840EA080840F2A3
:1021D00003308643A969A86840EA0120064340F617
:1021E0000C4086434FF2F0008643E969E86840EA14
:1021F0000120064328690001296A40EA01300643AC
:1022000027F022076969686840EA011007432068DF
:10221000C0F808802068866120680762012084F881
:10222000460084F83E0001213F200155012084F83A
:10223000420043200155012084F83D000020A3E71F
:1022400010B586B0044600200290039004900590DB
:1022500014492068884223D100BF1348C06940F068
:1022600004001149C8610846C06900F004000190EB
:1022700000BF00BF00BF0846806940F008008861C9
:102280000846806900F00800019000BF00BFC02030
:10229000029000200390049002A90448FFF78CF8F4
:1022A00006B010BD0008004000100240000C0140C4
:1022B0002DE9F04304460D4694F83E603F20075D4B
:1022C00094F84280432010F804906DB9012E02D199
:1022D000B8F1010F02D00120BDE8F083022084F89C
:1022E0003E0084F8420025E0042D0CD1012F02D1DC
:1022F000B9F1010F01D00120EEE702213F20015585
:102300004320015516E0012E07D1012F05D1B8F168
:10231000010F02D1B9F1010F01D00120DCE7022049
:1023200084F83E0002213F200155022084F842003B
:102330004320015515B1042D0CD105E001220021E7
:10234000206801F0F1F910E001220421206801F079
:10235000EBF90AE001220021206801F0E5F90122F1
:102360000421206801F0E0F900BF00BF2068006888
:1023700040F00100216808600020ADE7704710B50B
:10238000044620680069C0F34000D8B12068C068E6
:10239000C0F34000B0B16FF0020021680861012075
:1023A00020772068806900F0030018B12046FFF70D
:1023B000E5FF05E0204600F0D9F8204600F0A0F93E
:1023C0000020207720680069C0F38000D8B1206821
:1023D000C068C0F38000B0B16FF0040021680861EC
:1023E000022020772068806900F4407018B12046F0
:1023F000FFF7C4FF05E0204600F0B8F8204600F0E3
:102400007FF90020207720680069C0F3C000D8B1B0
:102410002068C068C0F3C000B0B16FF00800216848
:102420000861042020772068C06900F0030018B11B
:102430002046FFF7A3FF05E0204600F097F820466E
:1024400000F05EF90020207720680069C0F30010DA
:10245000D8B12068C068C0F30010B0B16FF01000B0
:1024600021680861082020772068C06900F4407066
:1024700018B12046FFF782FF05E0204600F076F80D
:10248000204600F03DF9002020772068006900F028
:10249000010058B12068C06800F0010030B16FF051
:1024A000010021680861204600F0E4F92068006915
:1024B000C0F3C01058B12068C068C0F3C01030B17C
:1024C0006FF08000216808612046FFF781FD2068D9
:1024D0000069C0F3801058B12068C068C0F3801054
:1024E00030B16FF0400021680861204600F064FAC6
:1024F00020680069C0F3401058B12068C068C0F37C
:10250000401030B16FF02000216808612046FFF7CD
:1025100060FD10BD10B586B0044600200290039007
:10252000049005900E492068884216D100BF0D48DE
:10253000806940F004000B4988610846806900F01A
:102540000400019000BF00BF881502900220039094
:10255000059002A90448FEF72FFF06B010BD000049
:10256000002C01400010024000080140704770B587
:1025700004460D46164600BF94F83C00012801D1E0
:10258000022070BD012084F83C0000BF36B1042E4B
:102590001BD0082E31D00C2E5ED145E02946206894
:1025A00001F0D4F82068806940F008002168886153
:1025B0002068806920F004002168886120688069B3
:1025C000296908432168886147E02946206801F0AD
:1025D000EDF82068806940F4006021688861206817
:1025E000806920F480602168886120688069296999
:1025F00040EA0120216888612FE02946206801F027
:1026000009F92068C06940F008002168C8612068A5
:10261000C06920F004002168C8612068C069296988
:1026200008432168C86118E02946206801F026F9AE
:102630002068C06940F400602168C8612068C069F2
:1026400020F480602168C8612068C069296940EA77
:1026500001202168C86100E000BF00BF00BF00206A
:1026600084F83C0000BF00BF8BE710B504460CB9EE
:10267000012010BD94F83D0028B9002084F83C00EA
:10268000204600F025F8022084F83D00211D206836
:1026900001F010F8012084F8460000BF84F83E00E5
:1026A00001213F200155402001554120015500BF27
:1026B00000BF012084F84200432001554420015509
:1026C0004520015500BF012084F83D000020D0E7DF
:1026D00008B5094A016891420DD100BF07498969CF
:1026E00041F40061054A91611146896901F4006174
:1026F000009100BF00BF08BD002C01400010024047
:102700007047000070B504460D4615B994F83E00B8
:102710000BE0042D02D13F20005D06E0082D02D120
:102720004020005D01E04120005D012801D0012032
:1027300070BD1DB9022084F83E000EE0042D03D1C7
:1027400002213F20015508E0082D03D1022140203D
:10275000015502E00221412001550122294620684D
:1027600000F0E2FF19492068884201D1012000E011
:10277000002028B12068406C40F400402168486483
:102780001249206888420BD02068B0F1804F07D0F2
:102790000F492068884203D00E49206888420CD136
:1027A0002068806800F00706062E0CD020680068BC
:1027B00040F001002168086005E02068006840F0F2
:1027C0000100216808600020B2E70000002C0140F1
:1027D000000400400008004030B504460D460022C9
:1027E0002946206800F0A0FF21492068884201D1D5
:1027F000012000E0002090B100BF2068006A41F293
:102800001111084050B92068006A8910084028B9A1
:102810002068406C20F400402168486400BF00BF7D
:102820002068006A41F21111084050B92068006A1E
:102830008910084028B92068006820F0010021684C
:10284000086000BF1DB9012084F83E000EE0042D91
:1028500003D101213F20015508E0082D03D10121BA
:102860004020015502E0012141200155002030BDEA
:10287000002C014010B50446404884427CD14048B9
:102880000068401C3E490860084600683D4988428F
:1028900002D300203A4908603B480088401C3A496E
:1028A00008800846008805283BDB00200880374860
:1028B000006837490860374800680068C0F30010B6
:1028C0003549087033480068406A30490860334829
:1028D00000683349086030480078A0B9FDF75CFF14
:1028E000304908602D4800680968884207D32B48A2
:1028F00000682C490968401A2849086011E0002046
:10290000264908600DE024480078012809D1FDF728
:1029100043FF2449086021480068096808441F49AA
:10292000086000F0F5FA28B100201F4908801F490F
:1029300008800EE01D480088401C1C49088008469D
:102940000088B0F5FA7F04DD0020088001201649D8
:1029500008801748007801280ED1164800883228D0
:1029600005DA14480088401C1249088004E0002061
:10297000104908800E49087010BD000004010020B5
:102980004C01002000512502300000202C000020C6
:1029900028000020A4010020480000201C00002086
:1029A0002000002024000020100000201200002041
:1029B0005E00002060000020704770472DE9F0475E
:1029C0000446206805682068C668206847694FF09B
:1029D0000008C14605F00F08B8F1000F0AD105F054
:1029E000200038B106F0200020B1204600F0CEFFD4
:1029F000BDE8F087B8F1000F71D007F0010018B9F9
:102A000006F4907000286AD005F0010030B106F499
:102A1000807018B1E06B40F00100E06305F0040045
:102A200030B107F0010018B1E06B40F00200E06344
:102A300005F0020030B107F0010018B1E06B40F082
:102A40000400E06305F0080048B106F0200010B96A
:102A500007F0010018B1E06B40F00800E063E06BA4
:102A600068B305F0200028B106F0200010B1204620
:102A700000F08CFF20684069C0F38019E06B00F023
:102A8000080010B9B9F1000F22D0204600F046FF2F
:102A90002068406900F04000B0B12068406920F033
:102AA000400021684861606B50B11848616B486311
:102AB000606BFEF74FFA10B1606B416B88470CE01A
:102AC0002046FFF77AFF08E02046FFF776FF04E094
:102AD0002046FFF772FF0020E06389E7FFE705F07B
:102AE000800030B106F0800018B1204601F01CF8DB
:102AF0007EE705F0400030B106F0400018B12046F6
:102B000000F01CFF74E700BF72E7000009390008FD
:102B100010B504460CB9012010BDA06900B100E059
:102B200000BF94F8390028B9002084F83800204606
:102B300000F028F8242084F839002068C06820F4C8
:102B400000502168C860204600F070FF20680069CE
:102B500020F49040216808612068406920F02A0034
:102B6000216848612068C06840F400502168C8604E
:102B70000020E063202084F8390084F83A00002027
:102B8000CAE7000010B586B004465F492068884255
:102B900054D100BF5D48806940F004005B49886102
:102BA0000846806900F00400019000BF00BF00BF2C
:102BB0000846806940F4804088610846806900F4D6
:102BC0008040019000BF00BF00BF0846806940F010
:102BD000010088610846806900F00100019000BF93
:102BE00000BF4815029002200390012004900320AA
:102BF000059002A94648FEF7DFFB4FF48060029083
:102C00000020039002A94248FEF7D6FB4148006825
:102C1000C06840F040003F490968C8603D4800680E
:102C2000C06840F020003B490968C8602520FEF7D5
:102C3000D7FD002211462520FEF7E2FD3649206827
:102C400088425ED100BF3148C06940F400302F494E
:102C5000C8610846C06900F40030019000BF00BFA1
:102C600000BF0846806940F004008861084680691A
:102C700000F00400019000BF00BF04200290022079
:102C80000390012004900320059002A92048FEF73C
:102C900093FB0820029000200390049002A91C4896
:102CA000FEF78AFB002211462620FEF7A9FD26200A
:102CB000FEF796FD00BF1548406940F0010013493A
:102CC00048610846406900F00100019000BF00BF64
:102CD00012481349086010204860002110488160A4
:102CE0008021C1600021016141618161C161FEF704
:102CF00057FA08B1FDF7B0FD00BF094820634462F0
:102D000000BF06B010BD00000038014000100240B6
:102D100000080140EC050020004400408000024013
:102D2000F40600202DE9F84F04460E461746994652
:102D30004FF0000A94F83A0020285DD106B117B987
:102D40000120BDE8F88F00BF94F83800012801D1B8
:102D50000220F6E7012084F8380000BF0020E0637D
:102D6000222084F83A00FEF7C5FC8246A785E78555
:102D7000A068B0F5805F04D1206910B90025B04685
:102D800002E035464FF0000800BF002084F838000C
:102D900000BF29E05346002220212046CDF80090B4
:102DA00000F0F2FE08B10320CBE745B92068406887
:102DB000C0F30800A8F8000008F1020811E0A068BC
:102DC000B0F5805F03D0A06828B9206918B92068E1
:102DD0004068287004E02068406800F07F00287098
:102DE0006D1CE08D401EE085E08D0028D2D12020B2
:102DF00084F83A000020A4E70220A2E7024A016812
:102E0000914200D000BF70470038014010B5034622
:102E100093F83900202823D101B10AB9012010BD4F
:102E200000BF93F83800012801D10220F7E7012004
:102E300083F8380000BF19629A84DA840020D863CE
:102E4000212083F8390000BF002083F8380000BF3C
:102E50001868C06840F080001C68E0600020DEE771
:102E60000220DCE710B5044604492068884202D1FC
:102E7000FDF766FB00E000BF10BD00000038014018
:102E800000BFFEE710B51B48006842F2107108440D
:102E900019490968884203D90120184908700DE0D2
:102EA0001448006843F69821084413490968884289
:102EB00004D2002011490870114908700F480078A9
:102EC000012815D10E48007890B901200C490870EE
:102ED00000200C49087000224FF400510A48FEF708
:102EE00003FC00210948FFF777FC01200449087022
:102EF00010BD00001C000020140000200E00002067
:102F00000F00002032000020000C01405C01002076
:102F100010B54FF400710448FEF7DEFB08B1012044
:102F200010BD0020FCE70000000C014010B5124865
:102F3000008801281FD111480078022802D10320FF
:102F40000E4908700E480078022802D103200C496F
:102F500008700020084908800A49087000224FF4D0
:102F600000510948FEF7C0FB00210848FFF734FC78
:102F700000200749086010BD100000203500002027
:102F80004400002032000020000C01405C010020C1
:102F90001C00002000B591B000200F9010901C2163
:102FA00008A8FDF7D6F820216846FDF7D2F81A48A0
:102FB0001A4908600020486000211848816041F6E5
:102FC0001F41C1600021016141618161FFF74DFB3B
:102FD00008B1FDF741FC00200F9010900FA90F4899
:102FE000FEF7F8FF08B1FDF737FC602008900020DD
:102FF00009900A900B900C900D900E90002208A959
:103000000648FFF7B4FA08B1FDF726FC0348FFF7BE
:1030100081FA11B000BD0000002C01405C010020CD
:1030200000B58BB0242102A8FDF793F80020009092
:10303000019018481849086000204860002116488F
:1030400081604FF6FF71C160002101618161032041
:10305000029000200390012004900020059006902B
:10306000079001200890002009900A9002A90A48C0
:10307000FFF784F808B1FDF7EFFB00200090019006
:1030800069460548FEF7A6FF08B1FDF7E5FB0BB062
:1030900000BD000000080040A401002000BFFEE7C2
:1030A00000BFFEE77047000010B52C4800780128EB
:1030B00053D12B480078012812D12A4908700022E8
:1030C00041032948FEF710FB40F2DC5000F0A4FD5C
:1030D00000212648FFF716FB0220214908703CE03A
:1030E0001F480078032813D102201E4908700122CE
:1030F00001031D48FEF7F8FA41F27C5000F08CFD08
:1031000000211A48FFF7FEFA04201549087024E050
:1031100013480078042820D11548006800F6C41030
:1031200014490968884218D900200E490870002205
:103130004FF400510C48FEF7D7FA00210B48FFF777
:103140004BFB0020054908700549087001200A4919
:103150000870FDF7C5FAFDF785FA10BD33000020B1
:103160004400002032000020000C01405C010020DF
:103170001C000020180000204500002010B5654804
:103180000078012815D164480078012812D16349DC
:103190000870002241036248FEF7A6FA40F2DC50B4
:1031A00000F03AFD00215F48FFF7ACFA02205A49CF
:1031B0000870AEE058480078032813D10220574920
:1031C0000870012201035648FEF78EFA41F27C5046
:1031D00000F022FD00215348FFF794FA04204E49E5
:1031E000087096E04C48007804286BD14B48007872
:1031F0000228DED14C4908684C49096800F06EFB92
:103200006428D6D900F05EFB484908604848006849
:1032100048490968884213D9454800684549096802
:10322000401A322818D244480068401C42490860BD
:10323000424800683E4909680844404908600BE07C
:103240003D480068401C3C4908603C4800683849DB
:10325000096808443949086037480068052858D388
:1032600005202D4908703548006833490968B0FBCE
:10327000F1F03349086008460068400831490860A9
:1032800000202D4908602D4908602449087000225B
:103290004FF400512248FEF727FA00212148FFF79A
:1032A0009BFA01201D490870002241031C48FEF7CB
:1032B0001BFA40F2DC5000F0AFFC00211948FFF788
:1032C00021FA26E014480078052822D11848016820
:1032D0001C48006800F6C41081421AD200200F4931
:1032E000087000224FF400510D48FEF7FDF900214F
:1032F0000C48FFF771FA002006490870064908706B
:1033000000F08AF8012010490870FDF7E9F9FDF78F
:10331000A9F910BD33000020350000203200002044
:10332000000C01405C0100204C010020380000200E
:103330001C000020200000203C0000204000002055
:103340001400002018000020450000207CB5002556
:1033500000200090019004226946294800F0ACF852
:10336000BDF800004AF6CD3188423DD1002405E089
:10337000601C3DF810004540601CC4B2022CF7DB15
:10338000BDF80600A84223D1002407E0601C3DF8E8
:1033900010001C4921F81400601CC4B2022CF5DB9B
:1033A0000120194908700020184908601548008854
:1033B000086014484088098840EA014013490860C1
:1033C000134808600846006840081249086016E083
:1033D00000200D4908700E480C4908600846006836
:1033E00040080C4908600AE00020074908700848B6
:1033F00006490860084600684008064908607CBD28
:1034000000FF00080000002034000020140000200D
:1034100000710200180000201CB5002000900190EF
:10342000002404E000202DF81400601CC4B2042C19
:10343000F8DB04226946134800F052F8642000F0DB
:103440002FFC4AF6CD30ADF800000F4800684FF66B
:10345000FF7101EA1040ADF802000B48008880B20D
:10346000ADF80400BDF80200BDF804104840ADF806
:10347000060004226946034800F032F8012003499F
:1034800008701CBD00FF000814000020340000205C
:1034900008B508490968C9084FF47A72B1FBF2F11E
:1034A0004143009100BF00BF00994A1E00920029CD
:1034B000F9D108BD7800002030B503460C4615460A
:1034C000002207E0184600F008F824F812009B1CC0
:1034D000501C82B2AA42F5DB30BD01460888704715
:1034E0002DE9F05F80468A461746B8F1006F02D397
:1034F0003A48804501D3BDE8F09FFDF735FFA8F1BC
:10350000006B4FEA9B25CBF34809C9F50074A7422D
:1035100000DC3C465CE04FF0006101EB85208A1442
:103520002F49FFF7C9FF00260BE009EB06002C49E5
:1035300031F810004FF6FF71884200D003E0701C94
:1035400086B2A642F1DB00BFA64225DA4FF0006149
:1035500001EB8520FDF784F94CF25030FDF7E6F9D8
:103560002048006920F002001E490861002608E09A
:103570003AF8160006EB0901194A22F81100701CEE
:1035800086B2A642F4DB4FF0006101EB85208A147D
:10359000134900F029F808E04CF25030FDF7C6F965
:1035A00022465146404600F01FF8A74200D110E0E5
:1035B0006D1C4FF000090AEB440A08EB4408381B65
:1035C00087B2B7F5007F02DD4FF4007400E03C469F
:1035D000A1E700BFFDF766FE00BF8CE70000010811
:1035E000EC010020002002402DE9F04104460E4687
:1035F000174600250AE036F815C06246002321462A
:103600000120FDF759FEA41C681C85B2BD42F2DB07
:10361000BDE8F081704730B58FB005460024012029
:103620000590000406900020079002200C90C10332
:103630000D910E9505A8FEF76BFA04460CB100BF7C
:10364000FEE70F20009002200190002002904FF42E
:10365000806003900020049002216846FEF722F962
:1036600004460CB100BFFEE70FB030BD10B5FEF749
:1036700047F810BD7047000010B50248FEF77FFE06
:1036800010BD00000401002070B505460C46074837
:10369000074908600846446000218160C5600161F7
:1036A000FEF7DAFC0248FEF72DFD70BD0004004075
:1036B0000401002010B50268184B984208D0B0F100
:1036C000804F05D0164B984202D0164B984203D13A
:1036D00022F070024B681A43104B984208D0B0F1A8
:1036E000804F05D00E4B984202D00E4B984203D12A
:1036F00022F44072CB681A4322F080034C6943EAFB
:10370000040202608B68C3620B688362034B9842B9
:1037100001D10B6903630123436110BD002C0140FB
:10372000000400400008004030B501F01F050124EE
:1037300004FA05F3046A9C430462046A01F01F055D
:1037400002FA05F52C43046230BD000030B5056A6D
:1037500025F001050562026A4368846924F070045B
:1037600024F003040D682C4322F002028D682A43E2
:103770000D4DA84206D100BF22F00802CD682A43B1
:1037800022F00402084DA84207D123F4807323F4E9
:1037900000734D692B438D692B43436084614D68F1
:1037A0004563026230BD0000002C014030B5056A5F
:1037B00025F010050562026A4368846924F4E04438
:1037C00024F440740D6844EA052422F020028D6838
:1037D00042EA05120E4DA84207D100BF22F0800236
:1037E000CD6842EA051222F04002094DA84209D1F3
:1037F00023F4806323F400634D6943EA85038D69F4
:1038000043EA8503436084614D688563026230BD8D
:10381000002C014030B5056A25F480750562026A06
:103820004368C46924F0700424F003040D682C4339
:1038300022F400728D6842EA05220F4DA84207D19A
:1038400000BF22F40062CD6842EA052222F48062C1
:10385000094DA84209D123F4805323F400534D6944
:1038600043EA05138D6943EA05134360C4614D685B
:10387000C563026230BD0000002C014030B5056A0E
:1038800025F480550562036A4468C26922F4E04267
:1038900022F440720D6842EA052223F400538D6839
:1038A00043EA0533064DA84204D124F480444D690F
:1038B00044EA85144460C2614D680564036230BD0A
:1038C000002C0140044840680349886008460068AD
:1038D00048600846406870474C01002010B5024619
:1038E0008A4201D9501A02E08B1A014CE01A10BD2D
:1038F0000051250200200349086048608860C860C4
:10390000704700004C01002070B505466C6A00202D
:10391000E085E0842046FFF750F870BD0168C96873
:1039200021F490710268D1600168496921F00101B8
:1039300002685161202180F83A10704710B50446A2
:103940002068C06820F040002168C860202084F80A
:1039500039002046FFF786FA002010BD10B509484F
:10396000094908604FF4E130486000210648816051
:10397000C160016181610C214161FFF7C9F8FCF769
:1039800023FD10BD00380140EC05002070B5044651
:1039900094F83A00222847D1A068B0F5805F0CD196
:1039A000206950B90025A66A20684068C0F3080065
:1039B0003080A06A801CA06215E0A56A0026A0687D
:1039C000B0F5805F03D0A06828B9206918B92068D5
:1039D0004068287004E02068406800F07F0028708C
:1039E000A06A401CA062E08D401E80B2E085C8B98C
:1039F0002068C06820F020002168C8602068C06886
:103A000020F480702168C8602068406920F00100BF
:103A100021684861202084F83A002046FFF7EEF93B
:103A2000002070BD0020FCE70220FAE770B50446D4
:103A30002168096921F44051E2681143226811614B
:103A40002269A1681143626941EA02052168C968D7
:103A500041F20C62914329432268D160216849698F
:103A600021F44071A2691143226851612D4A2168F5
:103A7000914202D1FDF7F2FF01E0FDF7DFFF00EB1D
:103A8000C00101EB001162689200B1FBF2F100EBA2
:103A9000C00202EB001263689B00B2FBF3F26423E6
:103AA000B2FBF3F202EBC20303EB0212A1EB8201C1
:103AB000322202EB01116422B1FBF2F101F0F001BC
:103AC00000EBC00202EB001263689B00B2FBF3F252
:103AD0006423B2FBF3F201EB021200EBC00101EB35
:103AE000001163689B00B1FBF3F100EBC00303EB33
:103AF00000136668B600B3FBF6F36426B3FBF6F377
:103B000003EBC30606EB0313A1EB8301322303EBA4
:103B100001116423B1FBF3F101F00F01114422689C
:103B2000916070BD00380140014691F839002128AC
:103B300028D18868B0F5805F0BD1086948B90A6A56
:103B40001088C0F308000B685860086A801C08627F
:103B500005E00B6A581C086218780B685860C88C1E
:103B6000401E80B2C88458B90868C06820F0800040
:103B70000B68D8600868C06840F040000B68D860E7
:103B8000002070470220FCE72DE9F04104460D4675
:103B900017469846069E21E0701CF8B12EB1FDF73D
:103BA000A9FDA0EB0800B04218D92068C06820F435
:103BB000D0702168C8602068406920F00100216849
:103BC0004861202084F8390084F83A0000BF0020C2
:103BD00084F8380000BF0320BDE8F0812068006849
:103BE0002840A84201D1012000E00020B842D3D0F3
:103BF0000020F1E710B5FCF711FD0248FEF7DEFEEC
:103C000010BD0000EC05002010B50248FEF7D6FEFE
:103C100010BD00002C060020B0F5E15F01DB41F68D
:103C20001F40024909684863704700005C0100209A
:103C300000BFFEE702480068C0F3022070470000A2
:103C40000CED00E010B5002804DB0A07130E054A4E
:103C5000135406E00A07140E034A00F00F031B1F5B
:103C6000D45410BD00E400E018ED00E002E008C804
:103C7000121F08C1002AFAD170477047002001E0E6
:103C800001C1121F002AFBD17047000010B5044685
:103C90000420FEF76FF90148046010BD4C000020BD
:103CA00030B50446002504E04FF47A7000F004F8C3
:103CB0006D1CA542F8D330BD70B5034600224FF00D
:103CC000E02675690D4E366803FB06F44FF0E026DA
:103CD000B16910E04FF0E026B06988420BD088420D
:103CE00002D20E1A324402E02E1A0E443244014629
:103CF000A24200D300E0EDE700BF70BD4C00002001
:103D0000FDF70AFD4FF4E010FFF785FC4820FFF7B0
:103D1000BDFFFCF743FEFFF73DF900211F48FEF70A
:103D20005BFDFFF7E7FD42F2CF010920FFF7ACFC96
:103D3000FFF714FEFCF7E0FA4FF47A70FFF7B0FFDC
:103D4000FFF76EF93C211648FEF7B2FAFFF7FEFACC
:103D50004FF4FA60FFF7A4FF022212491248FDF760
:103D600039F811480068806840F480000E490968FD
:103D700088604FF47A70FFF793FF0EE00120FFF7A1
:103D80008FFFFCF797FCFCF73BFCFFF77BF8FFF796
:103D9000CDF8FFF7F3F9FFF787F9EFE75C010020B3
:103DA000A4010020F00000207C00002000000000A2
:103DB00000000000010203040607080900000000DB
:103DC00001020304E43D0008000000207C00000024
:103DD0006C3C0008603E00087C000020040C0000E1
:103DE0007C3C000800000000000000000000000013
:103DF00000000000000000000000000000000000C3
:103E000000000000000000000000000000000000B2
:103E100000000000000000000000000000000000A2
:103E20000000000000000000000000000000000092
:103E30000000000000000000000000000000000082
:103E40000000000000000000000000000000000072
:103E50000000000010000000010000000024F40039
:04000005080000ED02
:00000001FF
