:020000040800F2
:10000000880C0020C901000825140008C110000850
:1000100011130008810700086F2900080000000084
:10002000000000000000000000000000C11C0008EB
:100030004909000800000000B5180008FD1D00086F
:10004000E3010008E3010008E3010008E301000800
:10005000E3010008E3010008E3010008E3010008F0
:100060006D090008E3010008E3010008E30100084E
:10007000E3010008E3010008E3010008E3010008D0
:10008000E3010008E3010008E3010008E3010008C0
:10009000E3010008E3010008E3010008E3010008B0
:1000A000E3010008E3010008E3010008E3010008A0
:1000B000A1200008B9200008C1220008E3010008BF
:1000C000E3010008E3010008E3010008E301000880
:1000D000E30100084D270008E3010008E3010008E0
:1000E0004D090008E3010008E301000800F002F8F0
:1000F00000F05AF80AA090E8000C82448344AAF168
:100100000107DA4501D100F04FF8AFF2090EBAE865
:100110000F0013F0010F18BFFB1A43F0010318473B
:1001200078470000984700000A444FF0000C10F890
:10013000013B13F0070408BF10F8014B1D1108BF65
:1001400010F8015B641E05D010F8016B641E01F805
:10015000016BF9D113F0080F1EBF10F8014BAD1C55
:100160000C1B09D16D1E58BF01F801CBFAD505E073
:1001700014F8016B01F8016B6D1EF9D59142D6D3CD
:10018000704700000023002400250026103A28BFF5
:1001900078C1FBD8520728BF30C148BF0B607047F9
:1001A0001FB51FBD10B510BD00F033F81146FFF7A5
:1001B000F7FF02F0FDFC00F051F803B4FFF7F2FF87
:1001C00003BC02F0EBFB00000948804709480047E8
:1001D000FEE7FEE7FEE7FEE7FEE7FEE7FEE7FEE7F7
:1001E000FEE7FEE704480549054A064B7047000054
:1001F000011E0008ED00000888060020880C002081
:1002000088080020880800207047704770477047B2
:100210007047754600F028F8AE460500694653461B
:1002200020F00700854618B020B5FFF7DBFFBDE8DA
:1002300020404FF000064FF000074FF000084FF04D
:10024000000B21F00701AC46ACE8C009ACE8C009DE
:10025000ACE8C009ACE8C0098D4670470446AFF36E
:1002600000802046FFF7A9FF0048704724060020C1
:1002700021B1826842F00102826003E0826822F0CC
:10028000010282607047000010B5044612488442A3
:1002900008D10121401501F071FC0021601501F029
:1002A0006DFC17E00D48844208D10121001501F0D2
:1002B00065FC0021201501F061FC0BE00848844238
:1002C00008D10121C80301F059FC00214FF400407E
:1002D00001F054FC10BD0000002401400028014042
:1002E000003C0140014600208A6802F004020AB185
:1002F000012000E0002070470146C86C80B27047C2
:100300000246002013680B400BB1012000E00020E2
:100310007047014600208A6802F008020AB10120F5
:1003200000E000207047000030B5024600200023A6
:1003300050680F4C20400D790C6844EA0524204396
:10034000506090680B4C2040D1E902542C434D7909
:1003500044EA450420439060D06A20F470000C7C8D
:10036000641EE4B2234340EA0350D06230BD000073
:10037000FFFEF0FFFDF7F1FFF0B504460D4600204B
:100380000021092D11DDE068A5F10A0606EB4607FC
:10039000072606FA07F18843A5F10A0606EB46068A
:1003A00003FA06F10843E0600CE0206905EB45071D
:1003B000072606FA07F1884305EB450603FA06F11E
:1003C00008432061072A0FDA606B561E06EB86078A
:1003D0001F2606FA07F18843561E06EB860605FA25
:1003E00006F10843606322E00D2A0FDA206BD61F66
:1003F00006EB86071F2606FA07F18843D61F06EB91
:10040000860605FA06F10843206310E0E06AA2F1CF
:100410000D0606EB86071F2606FA07F18843A2F1B0
:100420000D0606EB860605FA06F10843E062F0BD0C
:10043000816841F008018160704721B1826842F40F
:10044000A002826003E0826822F4A002826070470A
:10045000816841F0040181607047000000B587B0F9
:100460000121082001F07AFB0121480201F076FB0E
:100470000320ADF8180000208DF81B0006A91A48CB
:1004800000F0ECFC4FF4004001F04CFB1748FFF784
:10049000FBFE00208DF8090004904FF460200390CB
:1004A0000020019001208DF8140000208DF8080034
:1004B00001A90E48FFF738FF01210C48FFF7D8FECD
:1004C0000A48FFF7B5FF00BF0848FFF722FF0028E2
:1004D000FAD10648FFF7BCFF00BF0448FFF702FF50
:1004E0000028FAD107B000BD000C014000240140F3
:1004F00070B58148007800287ED14FF07E517F484A
:10050000006803F057F97D4908607D497B48006821
:1005100003F0E8FB0FD27A497848006803F014FC36
:100520000546784903F0B4F904464FF07E5103F0D4
:1005300041F9754908604FF080417348006803F045
:10054000D1FB03D24FF080406F4908606F4970487B
:10055000006803F0C7FB1FD26E496D48006803F0C6
:10056000C1FA19D26C480068012815D164496B485A
:10057000006803F0B7FB09D269496848006803F0D6
:10058000B1FA03D267486849086002E067486649E3
:1005900008600020604908605F48006870B96449DD
:1005A0005E48006803F09EFB08D262495B48006821
:1005B00003F098FA02D20120574908605A480168AE
:1005C0005D48006801F000FA5C4908605C495348E6
:1005D000006803F087FA17D25A495048006803F0C0
:1005E00081FB11D254480068574988420CDD5248BB
:1005F00000685649884200E022E005DA5448006865
:10060000401C5349086002E00020514908605048EE
:100610000068082802DD0120374908704748006853
:1006200040F6B831884202DD084644490860434834
:100630000068484988425EDA0846404908605AE046
:100640002D480078012856D135493448006803F018
:100650007BFB044602F0A6F93F4908603F48016869
:100660000068401C3D4A10601E2904DA32480068C8
:100670003B49086010E03B480078401CC0B2394953
:100680000870042808DD2C48006801F015F9364987
:10069000086000203349087030480068B0F5FA7FE0
:1006A00018DD2E480068B0F5966F13DA2C48006804
:1006B0002E49884204DD2A48006814382849086019
:1006C000274800682949884204DA25480068143020
:1006D00023490860214800681E2805DD2448254973
:1006E00008602548254908601B4800681E490968BC
:1006F000401A1249086070BD040000202C0100203F
:1007000000007A4400409C45BC000020000070C1FD
:100710003400002000007041A40000202C000020C4
:1007200000E04445408A0300B4000020C04B0300B1
:1007300000002F440080A2440C0000201C00002078
:1007400000404E4500803B4550340300708203005A
:10075000AC0000206CEEFFFF20000020A80000206D
:10076000100000209900002024000020605B03009E
:1007700000004843C00000200000A041C400002049
:1007800000BFFEE710B501211948006800F08AF8A3
:1007900002211848006800F085F81748006803F047
:1007A00075F90446032100F07DF8032000F02EF8CF
:1007B0001249087000201249087012E000BF114869
:1007C000008800F040000028F9D00F480C49097853
:1007D000405C0C49091D088009480078401C084904
:1007E000087007480078054909788842E6DB10BDA3
:1007F0002C000020340000200C000020920000207B
:100800009000002000380140F805002001460A2928
:1008100000DC09B9002070472420214A10700B2900
:100820003CD2DFE801F03B060B10151A1F24292FDC
:10083000350005201A4A50710620ECE70920184AB5
:1008400050720A20E7E70D20154A50730E20E2E7A8
:100850001120134A50741220DDE71520104A5075FC
:100860001620D8E719200E4A50761A20D3E71D200B
:100870000B4A50771E20CEE72120094A82F821003A
:100880002220C8E72520064A82F825002620C2E754
:100890002920034A82F829002A20BCE70020BAE771
:1008A000F805002013B50C460A2C00DC04B91CBD69
:1008B0000B2C43D2DFE804F042060C12181E242A47
:1008C00030363C0001221F49684600F099FA35E0B5
:1008D00005221C49684600F093FA2FE009221949C5
:1008E000684600F08DFA29E00D221649684600F0AE
:1008F00087FA23E011221349684600F081FA1DE0CF
:1009000015221049684600F07BFA17E019220D49BC
:10091000684600F075FA11E01D220A49684600F0A9
:100920006FFA0BE021220749684600F069FA05E0FA
:1009300025220449684600F063FA00BF00BF00BFEB
:10094000B5E70000F80500207047000010B5054825
:10095000006810B90220044908704FF4804000F08C
:100960007FF810BD388121420500002010B50548F0
:10097000006810B9012004490870042000F070F8E4
:1009800010BD000008012142050000201FB5012113
:10099000042001F0E3F80121082001F0DFF8012133
:1009A000084601F0DBF848208DF803000420ADF87C
:1009B00000006946284800F051FA48208DF80300ED
:1009C0004FF48040ADF800006946244800F046FA34
:1009D0000221002000F022FA0420029001208DF86C
:1009E0000E0000208DF80C000C208DF80D0002A8E0
:1009F00000F03CF80E21012000F010FA4FF4804086
:100A0000029001208DF80E0000208DF80C000C20C3
:100A10008DF80D0002A800F029F808208DF80400D8
:100A200001208DF8070000208DF8050001208DF8C9
:100A3000060001A800F0F8FC28208DF80400012031
:100A40008DF8070000208DF8050001208DF80600C4
:100A500001A800F0E9FC1FBD00080140000C0140A6
:100A60000149086070470000140401400021234937
:100A70008279002A3AD00A46126803689A430B46E4
:100A80001A600A1D126803689A430B1D1A600279E6
:100A900011440A6803681A430A60184A0832126847
:100AA00003689A43154B08331A601A1D12680368CD
:100AB0009A43124B0C331A604279102A0ED11A1F36
:100AC000126803681A430D4B08331A601A1D126826
:100AD00003681A43094B0C331A600DE00749427949
:100AE00011440A6803681A430A6005E00279114458
:100AF0000A6803689A430A607047000000040140D6
:100B000000B587B00121084601F018F80121042042
:100B100001F024F80320ADF8000004208DF8030054
:100B200069461E4800F09AF904A801F0B1FD0020C2
:100B3000ADF810004FF6FF70ADF814000020ADF8CE
:100B40001600ADF8120004A94FF0804001F04EFDF0
:100B500000231A4603214FF0804001F0EAFB01A870
:100B600001F070FC0A20ADF80C0001A9400701F06B
:100B700013FC0121880701F0BBFB012211469007FD
:100B800001F069FC00214FF0804001F001FD0121DE
:100B9000880701F0B3FB07B000BD0000000801406A
:100BA00000B587B00121042000F0C8FF0121082012
:100BB00000F0D4FFC020ADF8000004208DF8030041
:100BC00069461C4800F04AF904A801F061FD0020C4
:100BD000ADF810004FF6FF70ADF814000020ADF82E
:100BE0001600ADF8120004A9134801F0FFFC002321
:100BF0001A460321104801F09CFB01A801F022FCD9
:100C00000A20ADF80C0001A90B4801F0C5FB012139
:100C1000094801F06DFB01221146074801F01BFC59
:100C20000021054801F0B4FC0121034801F066FBF6
:100C300007B000BD000C0140000800402DE9F04164
:100C40005648007800287DD15548007888B946215B
:100C50005448006800F036FA534908605348006869
:100C6000002805D101204E490870514851490860BB
:100C70007CE04B480078012878D14F484F49086004
:100C80004F495048006803F05FF8054601F08AFEBE
:100C90000446C01704EB5070C0104B49086045482B
:100CA000006800F0F7FE494908604248006848497A
:100CB000884208DD6FF045013A48006800F002FA0A
:100CC0003949086007E04048006840423F490968E8
:100CD0000844354908603F493A48006802F002FF7D
:100CE00017D23D493748006802F0FCFF11D2314865
:100CF00000683A4988420CDD2E480068384988422D
:100D000007DA4FF07E513748006802F053FD35494D
:100D1000086030492B48006802F0E4FE15D22E49E5
:100D20002848006802F0DEFF0FD22E48006802F06B
:100D300015FD06462C4A2D4B02F0E6F8044602F05B
:100D4000B1F800E027E027490860294925480068F4
:100D500002F0C8FF0AD20120104908700020104993
:100D60000870114908602348234908600E4800684C
:100D700040F6C411884202DD08460B4908600A4863
:100D800000681E49884202DA08460749086006489A
:100D9000006801F00BF8BDE8F081000003000020BE
:100DA00024010020080000201C0000202481214292
:100DB00080A903000C000020605B030010000020ED
:100DC00000007A442C000020200000202400002095
:100DD000708203000080A24400002F44905303005F
:100DE00030630300280100209A9999999999B93F95
:100DF0000000484310150300B40000203CF6FFFF3C
:100E000030B503461C788C545D78541C0D559D7884
:100E1000941C0D55DD78D41C0D5530BD30B5002225
:100E20008B071C0F0F2303FA04F20B4B8C1053F8A3
:100E300024309343084C8D1044F8253023468C1001
:100E400053F824308C07240F00FA04F42343024C97
:100E50008D1044F8253030BD080001402DE9F041E7
:100E6000024600250026002000230024002791F8D8
:100E700003C00CF00F0591F803C00CF0100CBCF18E
:100E8000000F03D091F802C04CEA050591F800C0AC
:100E9000BCF1000F31D0146800202BE04FF0010CA2
:100EA0000CFA00F3B1F800C00CEA03069E4220D110
:100EB00083004FF00F0C0CFA03F7BC4305FA03FC58
:100EC0004CEA040491F803C0BCF1280F06D14FF09E
:100ED000010C0CFA00FCC2F814C00AE091F803C03F
:100EE000BCF1480F05D14FF0010C0CFA00FCC2F820
:100EF00010C0401C0828D1D31460B1F800C0BCF168
:100F0000FF0F34DD546800202EE000F1080C4FF094
:100F1000010808FA0CF3B1F800C00CEA03069E427F
:100F200021D183004FF00F0C0CFA03F7BC4305FAF4
:100F300003FC4CEA040491F803C0BCF1280F05D16E
:100F400000F1080C08FA0CF8C2F8148091F803C0FC
:100F5000BCF1480F07D100F1080C4FF0010808FA66
:100F60000CF8C2F81080401C0828CED35460BDE8AD
:100F7000F0810000F0B50A4600230024002100257E
:100F800000F00046B6F1004F02D11D4EF16901E0BC
:100F90001B4E7168C0F3034583B200F44016B6F5EA
:100FA000401F08D121F07061154E766826F07066FA
:100FB000134F7E6012E000F48016B6F5801F06D154
:100FC000032606FA05F4A14341F0706106E0460DE0
:100FD000360103FA06F6B14341F0706122B1460DC5
:100FE000360103FA06F6314300F00046B6F1004F31
:100FF00002D1034EF16101E0014E7160F0BD0000CD
:10100000000001400161704710B50446072301222A
:1010100021460948FFF7B0F901210748FFF70DFA0B
:1010200000BF02210448FFF76BF90028F9D00248FD
:10103000FFF762F910BD0000002401402DE9F041E6
:1010400007460C460025002608E03846FFF7DCFF7F
:101050000544C82001F086FD701CC6B2A642F4DB30
:10106000B5FBF4F080B2BDE8F081000070B5104827
:101070000068401C0E490860052817DD0D4801680E
:101080000D48006802F060FE064602F0C3FC05460B
:1010900000F016F9044602F0F9FC08490860064819
:1010A00000680449086000200149086070BD000024
:1010B000B8000020300000202C0000203400002068
:1010C00000BFFEE72DE9F04704460D46601B02F025
:1010D000DDFC1849086008460168174802F036FD33
:1010E0008146164902F0D4FB0746154801681148AD
:1010F000006802F029FE82460F4902F027FD814672
:101100000E4902F0C5FB8046394602F053FB064605
:101110000C480168304602F04DFB0A49086005485A
:101120000068074908600748006802F073FCBDE8E2
:10113000F087000010010020000020410000A041C5
:10114000180100201401002008B50121042000F03E
:1011500005FD0121082000F001FD28208DF8030085
:101160002420ADF8000069460748FFF777FE2820E5
:101170008DF803004FF48440ADF800006946034841
:10118000FFF76CFE08BD000000080140000C0140A4
:1011900010B541F28834642001F034FC3049086015
:1011A0000846006801282BD12E48007818B9012084
:1011B0002C49087024E02C492C48006802F092FC6D
:1011C00009D22B492948006802F08CFD03D2022085
:1011D0002849087011E028492448006802F082FC80
:1011E0000BD226492148006802F07CFD05D2244834
:1011F000007810B101201F490870002019490870BB
:1012000020480078012812D11F48006814301E4978
:1012100008601E48006814301C49086008460068D1
:10122000A04204D1002017490870184908601548E9
:101230000078022812D11448006814381249086056
:101240001248006814301149086008460068A0423E
:1012500004D100200B4908700C49086010BD000043
:10126000F80000200000002000A057452C000020BE
:1012700000203245030000200080A24400002F44DB
:10128000040000200500002010000020FC000020C9
:1012900008B50121042000F061FC10208DF8030046
:1012A000ADF8000003208DF8020069460348FFF7FF
:1012B000D5FD10210148FFF7A5FE08BD000801403B
:1012C00070B503460022012108E0104830F81150A3
:1012D000481E0E4E26F81050481CC1B20429F4DBFB
:1012E00018B20A4DE880002105E0084830F91100E5
:1012F0000244481CC1B20429F7DB1046D51702EBA3
:101300009575AD102CB2204670BD00001C01002068
:1013100000BFFEE708B50121042000F01FFC0121F9
:10132000082000F01BFC10208DF803004FF4405003
:10133000ADF8000003208DF8020069460E48FFF763
:101340008DFD4FF440510C48FFF75CFE10208DF8E6
:1013500003000820ADF8000003208DF80200694664
:101360000648FFF77BFD08210448FFF74BFE0120EC
:101370000349086008BD0000000C0140000801405E
:101380008C01214230B589B005460C460121C802C6
:1013900000F0E4FB0121042000F0E0FB18208DF8B0
:1013A00023004FF41060ADF8200003208DF82200D8
:1013B00008A91A48FFF752FDADF81850ADF81440CF
:1013C0000020ADF81A00ADF8160005A9144801F088
:1013D0000DF96020ADF804000020ADF80C00ADF868
:1013E0000A000120ADF8060001A90D4801F03CF803
:1013F00001A90B4801F08EF80121094800F08AFF8D
:101400000821074801F07CF80121054800F064FF3D
:101410000121034800F072FF09B030BD000801400F
:10142000002C01407047000070B5002100230F22FE
:10143000C47804B3154C246804F4E064C4F5E06493
:10144000210AC1F10403CA40447804FA03F1847804
:101450001440214309010E4C0678A155047804F08C
:101460001F050124AC4005786D11AD0005F1E025A4
:10147000C5F8004109E0047804F01F050124AC40E0
:10148000044D0678761145F8264070BD0CED00E05D
:1014900000E400E080E100E002490143024A1160FB
:1014A000704700000000FA050CED00E030B50024A4
:1014B0000CE0002506E00020074901EBC5010855B6
:1014C000681CC5B2802DF6DB601CC4B2082CF0DBB2
:1014D00000F0DEF830BD000030010020F0B5144609
:1014E00000267F2801DC3F2900DDF0BD0B46CF1729
:1014F00001EB5777FF10C7F10707FAB2CF1701EBDF
:101500005777FF10A1EBC707FDB2C5F1070701230D
:10151000BB40DEB24CB10A4B03EBC0039B5C3343D0
:10152000074F07EBC007BB5408E0054B03EBC003B4
:101530009B5CB343024F07EBC007BB5400BFD4E72B
:101540003001002008B50121042000F007FB012133
:10155000082000F003FB0121084600F0FFFA0121FA
:101560004648FFF707FD10208DF803003820ADF83E
:10157000000003208DF8020069464148FFF76EFC29
:1015800010208DF80300C002ADF8000003208DF894
:10159000020069463B48FFF761FC00203A490860B9
:1015A000642001F0B9FA01203849C1F88C0100210A
:1015B000AE2000F053F90021D52000F04FF90021B2
:1015C000502000F04BF90021A82000F047F900213D
:1015D0003F2000F043F90021D32000F03FF9002123
:1015E000084600F03BF90021402000F037F90021C7
:1015F0008D2000F033F90021142000F02FF9002194
:10160000202000F02BF90021022000F027F9002112
:10161000A12000F023F90021C02000F01FF90021D3
:10162000DA2000F01BF90021122000F017F9002148
:10163000812000F013F90021EF2000F00FF90021C4
:10164000D92000F00BF90021F12000F007F900216A
:10165000DB2000F003F90021302000F0FFF800212A
:10166000A42000F0FBF80021A62000F0F7F80021EC
:10167000AF2000F0F3F8FFF719FF08BD00023000BB
:10168000000C0140000801408C8121420080214271
:1016900030B500241CE004F1B001C8B2002100F014
:1016A000DDF80021084600F0D9F80021102000F0F4
:1016B000D5F8002508E0084901EBC501085D0121C6
:1016C00000F0CCF8681CC5B2802DF4DB601CC4B2FD
:1016D000082CE0DB30BD0000300100202DE9F04F88
:1016E00080460C4615461E46A346A5F12000C5B20D
:1016F00000273EE00C2E07D105EB45001F4901EB0A
:10170000800010F8079004E01D4800EB051010F869
:1017100007904FF0000A26E009F0800028B121462A
:101720004046099AFFF7DAFE09E0099808B9012056
:1017300000E00020024621464046FFF7CFFE4FEA78
:1017400049604FEA1069601CC4B2A4EB0B00B042C0
:1017500005D15C4608F1010000F0FF0806E00AF13F
:10176000010000F0FF0ABAF1080FD5DB00BF781CBA
:10177000C7B2B742BEDBBDE8F08F0000323E0008C2
:10178000A64200082DE9FF4F81B0074691461E464C
:101790000E9D4FF0000A002439E0301B401EC1B2FC
:1017A0000A2001F03DFAB9FBF0F00A21B0FBF1F29A
:1017B00001FB1208BAF1000F16D1701EA04213DD12
:1017C000B8F1000F0ED10120AB4605EBDB714910DB
:1017D00001FB04710090C8B22B4620220299FFF74A
:1017E0007DFF12E04FF0010A0120AB4605EBDB71F3
:1017F000491001FB04710090C8B208F13001CAB26F
:101800002B460299FFF76AFF00BF601CC4B2B442C6
:10181000C3DB05B0BDE8F08F78B505460E4614462B
:1018200018E07A2D03DD002506F11000C6B23A2E2D
:1018300004DD002005460646FFF738FE0120009033
:1018400022780C2331462846FFF748FF05F10800AF
:10185000C5B2641C20780028E3D178BD10B50A46D3
:101860001AB10123114C236002E000230F4C2360C6
:10187000002114E000230E4C236000F080031BB114
:101880000123241F236003E00023094C241F23604D
:101890000123074C23604306180E4B1CD9B20829BC
:1018A000E8DB0123014C236010BD0000BC01214294
:1018B00094812142704700002DE9FC47824634495B
:1018C0000968AAEB010002F0E1F8324908603248E9
:1018D000006801F043FF0446304A314B01F056FDE9
:1018E000064601F0DFFA2C4908602A48006801F03A
:1018F00035FF0646294A2B4B01F048FD04460D46AC
:101900002548006801F02AFF804622462B4601F058
:10191000FBFACDE9000101F0C5FA1F490860224831
:1019200001681D48006802F00FFA204908601A4853
:1019300000681D4908601E4801681E48006801F0E3
:1019400039FF074619480168384602F0FFF8064695
:10195000194901F09DFF04461848016818480068BD
:1019600001F028FF07460C480168384602F0EEF8FF
:101970000646114901F08CFF0546214601F01AFF89
:10198000104908600846006802F044F8BDE8FC878A
:1019900010000020E0000020D80000209A999999BA
:1019A0009999E93F9999C93FD4000020DC000020B3
:1019B000C0000020440000200000C842C4000020F5
:1019C00040000020D00000202DE9F04F89B00446EF
:1019D0008946A4EB090002F059F827490860084637
:1019E00001682648006801F0E5FE244908602448A3
:1019F00001682148006802F0A7F906464FF08241CD
:101A000002F0A4F8054601F0A9FECDE906011B4845
:101A1000006801F0A3FE07460022134601F0B6FC61
:101A200005460E46144801681648006802F08EF814
:101A3000019001F093FE0746134A144B01F0A6FCF7
:101A40002A463346CDE9020101F05EFACDE90401F0
:101A5000DDE9062301F058FA824601F023FA0C4929
:101A6000086005480068064908600948006801F0F8
:101A7000D1FF09B0BDE8F08F00010020080100206F
:101A80000C010020BC0000209A9999999999E13F96
:101A9000040100202DE9F04104461A490968601A42
:101AA00001F0F4FF184908601848016816480068FA
:101AB00002F04AF9164908601348006813490860A3
:101AC000144801681248006802F040F807461249BD
:101AD00001F0DEFE0546114801680B48006802F07F
:101AE00035F807460C4901F0D3FE0646294601F0B9
:101AF00061FE0B4908600846006801F08BFFBDE8F5
:101B0000F081000010000020EC000020E800002020
:101B1000F0000020440000200000A0414000002010
:101B2000E400002001460020034A506820F44040B1
:101B300008435060704700000010024029B1064A77
:101B4000D2690243044BDA6104E0034AD26982435A
:101B5000014BDA61704700000010024029B1064ACB
:101B600092690243044B9A6104E0034A92698243FA
:101B7000014B9A61704700000010024029B1064AEB
:101B8000D2680243044BDA6004E0034AD26882431D
:101B9000014BDA60704700000010024030B50021B0
:101BA0000022002400232D4D6D6805F00C0121B1A9
:101BB000042905D0082923D105E0294D056022E03C
:101BC000274D05601FE0254D6D6805F47012234D0B
:101BD0006D6805F48034022505EB92421CB9214D55
:101BE000554305600BE01D4D6D6805F400351DB1D2
:101BF0001C4D5543056002E0194D5543056002E058
:101C0000174D056000BF00BF144D6D6805F0F00171
:101C10000909154D6B5C0568DD4045600F4D6D6829
:101C200005F4E061090A104D6B5C4568DD40856094
:101C30000A4D6D6805F46051C90A0B4D6B5C45682F
:101C4000DD40C560054D6D6805F44041890B074DC9
:101C50006B5CC568B5FBF3F5056130BD0010024053
:101C600000127A0000093D00600000207000002092
:101C70000146022904D003290BD0042917D10FE013
:101C80004FF08042928C10B200224FF080439A8431
:101C90000FE0094A128810B20022074B1A8008E0B0
:101CA000064A128810B20022044B1A8001E000207C
:101CB00000BF00BF7047000024040040240800401B
:101CC000704710B500F002F810BD00000CB5002000
:101CD000019000903348006840F48030314908603A
:101CE00000BF3048006800F4003000900198401CAC
:101CF0000190009818B90198B0F5A06FF1D129486A
:101D0000006800F4003010B10120009001E00020D4
:101D100000900098012843D12348006840F010004B
:101D2000214908600846006820F003000860084662
:101D3000006840F0020008601A484068194948608D
:101D40000846406848600846406840F48060486043
:101D50000846406820F47C1048600846406840F41B
:101D6000E81048600846006840F08070086000BFD6
:101D70000C48006800F000700028F9D0094840685D
:101D800020F00300074948600846406840F0020020
:101D9000486000BF0348406800F00C000828F9D1F3
:101DA0000CBD00000010024000200240002805DDAC
:101DB000064A10800121064A116006E000F5E15153
:101DC000024A11800021024A11607047342C014000
:101DD000B4812142042808D14FF0E021096941F083
:101DE00004014FF0E022116107E04FF0E0210969A2
:101DF00021F004014FF0E0221161704770470000AC
:101E000010B51348006840F0010011490860084609
:101E10004068104908400E494860084600680E496D
:101E200008400B4908600846006820F480200860DC
:101E30000846406820F4FE0048604FF41F008860A8
:101E4000FFF73FFF4FF000600449086010BD00003D
:101E5000001002400000FFF8FFFFF6FE08ED00E072
:101E6000F0B50C46154600220021068C4FF6FE7791
:101E70003E400684028B018C4FF60C7632407E1C6D
:101E800006EA03162E433243104EB0420ED0104ED7
:101E9000B0420BD0B0F1804F08D00E4EB04205D00A
:101EA0000D4EB04202D00D4EB04206D14FF6FD7637
:101EB000314044F00106314305E04FF6F5763140FC
:101EC00044F00106314302830184F0BD002C01403F
:101ED000003401400004004000080040000C0040B5
:101EE000F0B50C461546002200210026078C4FF65F
:101EF000EF7C07EA0C070784028B018C4FF6FF7713
:101F000007EA041640F6FF473A404FF6FF7707EA24
:101F100003373A434FF6FF7707EA05273A43114F55
:101F2000B8420ED0104FB8420BD0B0F1804F08D05D
:101F30000E4FB84205D00E4FB84202D00D4FB842F6
:101F400006D14FF6DF77394046F01007394305E0F8
:101F50004FF65F77394044F010073943028301841C
:101F6000F0BD0000002C014000340140000400409E
:101F700000080040000C0040F0B50C461546002259
:101F800000210026078C4FF6FF6C07EA0C07078438
:101F9000828B018C4FF6FF7707EA04264FF60C7709
:101FA0003A404FF6FF7707EA03172F433A43114FA2
:101FB000B8420ED0104FB8420BD0B0F1804F08D0CD
:101FC0000E4FB84205D00E4FB84202D00D4FB84266
:101FD00006D14FF6FF57394046F48077394305E084
:101FE0004FF2FF57394044F48077394382830184AC
:101FF000F0BD0000002C014000340140000400400E
:1020000000080040000C0040F0B50C4615460022C8
:1020100000210026078C4EF6FF7C07EA0C07078498
:10202000828B018C4FF6FF7707EA043640F6FF47B4
:102030003A404FF6FF7707EA05273A434FF6FF7716
:1020400007EA03373A43114FB8420ED0104FB84257
:102050000BD0B0F1804F08D00E4FB84205D00E4FD4
:10206000B84202D00D4FB84206D14DF6FF77394045
:1020700046F48057394305E047F6FF57394044F4AA
:102080008057394382830184F0BD0000002C014059
:10209000003401400004004000080040000C0040F3
:1020A0004FF08040008A4FF08040008A20F001000D
:1020B0004FF08041088270472DE9FF5F01215148B0
:1020C00000F058F900286FD001214E4800F013F9B4
:1020D0004D48007801280BD14C480078401CC0B214
:1020E0004A4908700A2803D1002008704649087040
:1020F0000420FFF7BDFD46490860464800680968AE
:102100000844444908600A210820FEF797FF044666
:1021100001F0D4FC40490860FEF7A8FFFFF738F84B
:1021200001203E4908603E480078002841D13D48E2
:102130000078012802D1FEF7DBF92BE0394800785E
:10214000022827D138493448006801F0FDFD0446D3
:1021500000F028FC354908603548364908603648A3
:102160003649086036480078401CC0B234490870CF
:10217000042808DD27480068FFF79EFB3149086006
:1021800000202F490870294800682E490968401A24
:102190002D49086000F0EEFB00F084FA28B92A48C7
:1021A0000068FFF703FE07E029E00020FFF7FEFDCF
:1021B00002E00020FFF7FAFDFEF740FD0920FEF7E0
:1021C00023FF019001F0CFF880464FF066321F4B9D
:1021D00001F0DCF8064600221D4B01F0D7F8002282
:1021E0001C4BCDE9020101F0D1F8044600221A4B44
:1021F00000F032FF824601F087F818490860BDE818
:10220000FF9F0000000400400200002001000020A9
:10221000080000200C0000202C0000208C0121422E
:10222000000000200300002000E0444520000020C2
:1022300000004843C00000200000A041C40000206E
:1022400099000020240000201C00002066660A403F
:1022500000002640000059400000B0402800002047
:102260007FB505460C4601210220FFF767FCADF85B
:102270000850ADF804400020ADF80A00ADF80600A3
:1022800001A90E4800F0B2F9012211460B4800F0F6
:10229000E2F81D208DF8000000208DF801000320D9
:1022A0008DF8020001208DF803006846FFF7BCF8A6
:1022B0000121024800F022F87FBD00000004004028
:1022C000044800880348008820F001000149088084
:1022D000704700001008004021B1028842F08002DF
:1022E000028004E002884FF67F731A400280704734
:1022F000CA4302827047CA430282704721B10288F2
:1023000042F00102028004E002884FF6FE731A4098
:102310000280704731B1B0F8442042F40042A0F886
:10232000442005E0B0F84420C2F30E02A0F8442097
:102330007047F0B50C4615461E46002100220023CA
:102340000189028B038C4FF6F877394021434FF611
:10235000FC473A4040F201173A434FF6DD773B40E5
:102360004FF6FF7707EA06172F433B4301810283AD
:102370000384F0BD30B50246002000230024158AF6
:1023800005EA0103958905EA010413B10CB10120A6
:1023900000E0002030BD000070B505460C46244822
:1023A00085420ED0234885420BD0B5F1804F08D02E
:1023B0002148854205D02148854202D020488542E7
:1023C00000D100E000BF208850B92389A28861882D
:1023D0002846FFF745FDE188284600F0DBF825E0B8
:1023E000208804280AD12389A28861882846FFF71B
:1023F00077FDE188284600F0D6F817E02088082805
:102400000AD12389A28861882846FFF7B5FDE188B3
:10241000284600F0D5F809E02389A288618828467B
:10242000FFF7F2FDE188284600F0D3F870BD000008
:10243000002C01400034014000040040000800402E
:10244000000C004000210180418001218180002199
:10245000C180018170471AB183890B43838102E0F7
:1024600083898B438381704770B500240022002349
:10247000058C4FF6FE7635400584028C8388048BEC
:102480004FF68F752C40B51E2C400D882C43751EC1
:102490002A400D892A434D882A43144DA8420BD067
:1024A000134DA84208D0134DA84205D0124DA842A2
:1024B00002D0124DA84213D14FF6F7752A404D892C
:1024C0002A434FF6FB752A408D882A434FF6FF6555
:1024D0002B404FF6FF552B408D892B43CD892B4345
:1024E00083800483CD888586028470BD002C0140E2
:1024F00000340140004001400044014000480140D8
:102500000A460021018B4FF6F773194011430183EE
:102510007047000070B5002200230024058C4EF6A1
:10252000FF7635400584038C8488828B48F6FF75DE
:102530002A404FF6FF452A400D884FF6FF7606EAFF
:1025400005252A434DF6FF752B400D8906EA053512
:102550002B434D8806EA05352B430B4DA84202D08C
:102560000A4DA84208D14BF6FF752C408D894FF6D5
:10257000FF7606EA85152C4384808283CD88A0F8F7
:102580004050038470BD0000002C01400034014025
:1025900081847047028B4FF6F3731A400283028BDB
:1025A0000A4302837047028B4FF2FF331A400283C3
:1025B000028B4FF6FF7303EA01231A43028370472D
:1025C000828B4FF6F3731A408283828B0A43828395
:1025D0007047828B4FF2FF331A408283828B4FF613
:1025E000FF7303EA01231A438283704700220288A3
:1025F0001D4B98420ED01D4B98420BD0B0F1804F2E
:1026000008D01B4B984205D01A4B984202D01A4B67
:10261000984204D14FF68F731A404B881A43174BD8
:10262000984207D0164B984204D04FF6FF431A4009
:10263000CB881A4302808B8883850B8803850A4BDD
:1026400098420BD0094B984208D00E4B984205D0C7
:102650000D4B984202D00D4B984201D10B7A038664
:102660000123838270470000002C014000340140A8
:102670000004004000080040000C00400010004032
:102680000014004000400140004401400048014067
:102690004FF6FF71818000210180C180418001726D
:1026A0007047000010B51E4800681E49884207DBCD
:1026B0001B4800681C49884202DC1C48006828B995
:1026C0001B480078401C1A49087002E00020184995
:1026D000087017480078DC2807D1002014490870DA
:1026E000012014490870012400E0002412480078F9
:1026F00018B91248007802280FD111491148006812
:1027000001F0F0F905D310490E48006801F0EAFA2B
:1027100003D20120074908700124204610BD0000A3
:102720000C000020400D030080A9030024812142F9
:10273000F40000200000002004000020030000201E
:10274000002032452C00002000A0574510B540F273
:1027500025511D4800F04AF810B31B4800F002F95B
:10276000C4B21A48008800F40040C8B9174800886D
:1027700000F4804060B10A2C03D000201349088087
:1027800020E01248008840F400401049088019E019
:102790000D2C06D10D48008840F480400B4908807C
:1027A00010E00A480088C0F30D0009490C5407489E
:1027B0000088401C0549088008460088C72801DDBC
:1027C0000020088010BD0000003801408C0000206F
:1027D0003005002021B1828942F40052828104E058
:1027E00082894DF6FF731A408281704770B50246A8
:1027F000002400230025002040F66A16B14200D1D3
:1028000000BFC1F3421501F01F03012606FA03F3CE
:10281000012D02D19689334006E0022D02D1168A9D
:10282000334001E0968A33400C12012606FA04F484
:102830001688344013B10CB1012000E0002070BDB7
:10284000F0B50346002400260025002040F66A1754
:10285000B94200D100BF1846C1F3421401F01F066F
:10286000012707FA06F5012C01D10C3004E0022CF7
:1028700001D1103000E014301AB107682F4307600F
:1028800002E00768AF430760F0BD00002DE9F047A4
:1028900086B005460E460024A24600BFA14600278A
:1028A000B08900B100BF2F462C8A4CF6FF7004405F
:1028B000F08804432C82AC894EF6F3100440B088B3
:1028C00031890843718908430443AC81AC8A4FF6CF
:1028D000FF400440B0890443AC8201A8FFF75EF9D1
:1028E0001F48874202D1DDF810A001E0DDF80CA0FE
:1028F000A88900F4004040B10AEBCA0000EB0A10BE
:1029000031684900B0FBF1F807E00AEBCA0000EBC0
:102910000A1031688900B0FBF1F86420B8FBF0F0D0
:1029200004012009642101FB1089A88900F40040FA
:1029300040B1322000EBC900B0FBF1F000F007001D
:10294000044308E0322000EB09106421B0FBF1F0F1
:1029500000F00F0004432C8106B0BDE8F0870000B2
:102960000038014001468888C0F30800704700BF66
:10297000FEE7000041F29410074909684242914283
:1029800002DA4142044A116003490968814201DDCB
:1029900001490860704700001C000020014600BF8C
:1029A000704700002DE9F0470446254611480168AC
:1029B000284601F0C9F910490860104801680E481E
:1029C000006801F0C3F882460D48006880F00049B5
:1029D0002946484601F0BAF88046514601F0B4F95C
:1029E000074601F017F80646024805603046BDE884
:1029F000F0870000C8000020CC0000203C00002030
:102A00003800002001462D48006828B92C4800886D
:102A1000401C2B4A108002E00020294A10802748E1
:102A2000006828B92748007810B90120254A10709D
:102A300025480078B0B923480078012807D12348F9
:102A40000078401C214A107001201F4A10701F4856
:102A50000078022806D100201C4A10701C4A108001
:102A60000220704715480068012804D10020154A4B
:102A70001070154A10701548007801281CD11448B0
:102A80000088401C124A10801046008888420ADDE7
:102A90000B480088884206DA00200C4A10700C4A65
:102AA00010800120DDE706480088884204DD002010
:102AB000064A1070064A10800020D2E71401214215
:102AC0007A000020740000207500002076000020AD
:102AD0007800002010B56FF00400FFF77BF90A487A
:102AE00000680A49B0FBF1F009490870084600780F
:102AF00000EB4001C1EBC0104FF6FF7101EAC000CE
:102B00000449088010BD00004C00002000127A002B
:102B100082000020840000200146114A12884A43A6
:102B20004FF0E0235A6100229A611A46126942F07E
:102B300001021A6100BF4FF0E022106900F00102AB
:102B40001AB100F48032002AF5D04FF0E022126969
:102B500022F001024FF0E0231A6100229A617047CF
:102B6000840000200146114A12784A434FF0E023C6
:102B70005A6100229A611A46126942F001021A61F2
:102B800000BF4FF0E022106900F001021AB100F41A
:102B90008032002AF5D04FF0E022126922F00102C3
:102BA0004FF0E0231A6100229A61704782000020F2
:102BB0004FF4A060FEF770FC4FF4E13000F020F914
:102BC000FFF788FFFDF79CFFFDF7EAFFFEF7A2FB8A
:102BD000FDF744FCFEF7B8FAFEF75AFBFDF7D6FE08
:102BE000FEF7B0FCC820FFF797FF002141F61F4019
:102BF000FEF7C8FB41F61F413120FFF731FB0BE028
:102C0000FDF7C0FD01200549087000F015F800BF70
:102C1000024800780028FBD1F2E700000200002003
:102C200010B50246012000E050430B00A1F1010461
:102C3000E1B2F9D110BD000038B558A20021084614
:102C4000FEF7EAFD57480078012805D156A2002179
:102C50004120FEF7E1FD04E054A200214120FEF7EF
:102C6000DBFD53A20A210020FEF7D6FD5248006882
:102C7000012805D14CA20A214120FEF7CDFD04E038
:102C80004AA20A214120FEF7C7FD4CA214210020D0
:102C9000FEF7C2FD4B48006800280DDB0C20042322
:102CA00000904848142102683720FEF76BFD46A2C9
:102CB00014212820FEF7B0FD4248006800280EDAF3
:102CC0000C20042300903F48006842421421372022
:102CD000FEF758FD3DA214212820FEF79DFD3CA2E1
:102CE0001E210020FEF798FD3B480068642190FB00
:102CF000F1F40C20022322461E2100903720FEF71B
:102D000041FD35480068642190FBF1F201FB12049B
:102D10000C20022322461E2100904920FEF732FD9E
:102D20002EA21E214320FEF777FD2DA21E21592041
:102D3000FEF772FD2BA228210020FEF76DFD2B4827
:102D4000006800F083FE04460C200423224628215C
:102D500000903720FEF716FD25A232210020FEF755
:102D60005BFD0C20062300902248322102680F20D0
:102D7000FEF708FD20A232213720FEF74DFD0C2082
:102D8000062300901D48322102684B20FEF7FAFC12
:102D90003220FFF7C1FEFEF77BFC38BD4D4F544F8C
:102DA000523A0000000000204F4646004F204E00DF
:102DB0004C494D4954423A00248121424D6F746F71
:102DC0003A0000001C0000202B0000002D00000035
:102DD000564F4C20203A0000280000202E00000012
:102DE000560000004144433A000000002C0000203F
:102DF000543A000010000020503A00000C0000205F
:102E000010B586B00446012144F20400FEF7A6FE88
:102E10004FF40070ADF8140003208DF81600182050
:102E20008DF8170005A91D48FEF718F84FF48060CB
:102E3000ADF8140004208DF8170005A91748FEF717
:102E40000DF825208DF8000001208DF801000320E9
:102E50008DF8020001208DF803006846FEF7E4FAC1
:102E600001940020ADF80800ADF80A00ADF80C00A0
:102E7000ADF810000C20ADF80E0001A90848FFF7CE
:102E800005FD012240F225510548FFF7D9FC01213B
:102E90000348FFF79FFC06B010BD0000000801408A
:102EA0000038014021F00042A2F16052B2F5801FCB
:102EB00001F0004328BFD2F17F6C0BD95FEA001C00
:102EC00043EAC20242EB507018BF704728BF20F09F
:102ED00001007047B2F5801FBCBF184670474FEA2B
:102EE000410C1CF5001F02D2084600F0F6BE70B57A
:102EF00000F0F6FA00000089FFF7F6BF4FF000403F
:102F0000A0F580007047000010B591EA030F48BF9C
:102F100083F0004300F14083841A71EB030C05D267
:102F2000121943EB0C03001B61EB0C01DFF824E1E9
:102F30004FEA1154A4EB135C1EEA430F18BF9EEA3C
:102F4000445F73D023EA0E03DCF1200E21EA045122
:102F500043F4801332D322FA0CFE10EB0E0023FA56
:102F60000CFE41EB0E01CCF1200E03FA0EFE10EB2D
:102F70000E0051F10001B1F5801FCCF1200E32D2CC
:102F800001EB045112FA0EF2BDE8104058BF704731
:102F9000401C38BF5FEA420218BF7047002814BFC8
:102FA00020F0010041F100014FEA410313F5001F39
:102FB00038BF7047A1F1C04100F0E0BA012A43EBED
:102FC0000302ACF1200CDCF11F0E32BF4FF0000EFB
:102FD00023FA0CF310EB030041EB0451B4EB115F47
:102FE000D0D0A1EB045101F5801149085FEA30000F
:102FF00001EB04510ED350F1000038BF12FA0EFE5F
:1030000008D1BDE81040C9E7401C38BF5FEA420262
:10301000CAD1C3E7BDE810404FEA410313F5001FD2
:1030200038BF7047A1F1C04100F0A8BA9EEA445FE2
:1030300008D011EA5E0FBDE8104004BF01F0004166
:1030400000207047BDE8104070B500F049FA00BF9D
:1030500064FBBE3E0000E0FF2DE9C04130B4DFF864
:10306000A0C23CEA111418BF3CEA131400F0EC8033
:1030700081EA03051CEA111444EAD57418BF1CEA5E
:10308000131500F0C780A4EB05044FF0004545EA96
:10309000C12145EAC32341EA505143EA525304F1A6
:1030A0007F74994204F500344FEAC0204FEAC222EF
:1030B00008BF904200F09C804FEA13650FF2401663
:1030C000765D4FEA134506FB05F7C7F1807706FBEF
:1030D00007F74FEAD737A7FB03687642C8F5803871
:1030E000A7FB06CE38BFA8F1010807FB08E64FF0A2
:1030F000000EA6FB028CE6FB03CEDCF1000CCEF149
:10310000004E38BFAEF1010EA6FB0C584FF0000781
:103110004FF00005E6FB0E87A1FB08C6A0FB07CE1B
:1031200016EB0E0645F10005E1FB076515F1E04ED3
:103130007EBFA4F580345FEA46066D4116F1800734
:1031400045F100054FEA17274FEA066647EA05678B
:10315000A6F1DE46B6F1805F4FEA15251FD9384645
:1031600024F0010C05EBC471BCF1FE6F01EB0C11F6
:1031700002D8F0BCBDE8008124425CBF01F5801E8E
:103180009EEAC47F02D4F0BCBDE80081244238D45A
:10319000F0BCA1F1C041BDE8004100F0EFB94FEA39
:1031A000D22242EA43524FEAD323A7FB02864FEAD8
:1031B000D02040EA415007FB03661EEA0E0F4FEA9B
:1031C000D12105FB026658BFA6EB0056B6EB0056B0
:1031D0004FEA520E4EEAC37E18EB0E0E56EB530E1C
:1031E000BDD518EB02085E417F1C55F10005B6E71E
:1031F0004FF480154FF000074FF000064FF0000825
:10320000ADE7F0BC4FF0000001F1C04101F000411A
:10321000BDE8008111EA0C1F0CEA131500D00CE088
:1032200013EA0C1F00F025804FF00000F0BC81EA8B
:10323000030101F00041BDE80081F0BC81EA030117
:10324000BDE8004100F09AB9F0BCBDE8004170B59E
:1032500000F046F9097EFC3E00F007B881EA030160
:103260004FF0000001F00041704781EA030100F0D7
:1032700085B9F0BC4FF000002249BDE8004170471D
:10328000FFFDFBF9F7F5F4F2F0EEEDEBE9E8E6E42B
:10329000E3E1E0DEDDDBDAD8D7D5D4D3D1D0CFCDB2
:1032A000CCCBCAC8C7C6C5C4C2C1C0BFBEBDBCBBEB
:1032B000BAB9B8B7B6B5B4B3B2B1B0AFAEADACABE6
:1032C000AAA9A8A8A7A6A5A4A3A3A2A1A09F9F9EC0
:1032D0009D9C9C9B9A999998979796959594939372
:1032E000929191908F8F8E8E8D8C8C8B8B8A898909
:1032F000888887878685858484838382828181808C
:103300000000FF070000F87F4FEA41034FEA5353E4
:10331000A3F58063D3F11E03C8BFD3F1210C0CDDEC
:103320004FF0004242EAC12242EA505232FA03FC14
:103330008CEAE17CACEBE1707047102BC4BF00203D
:10334000704703F5787CBCF1FF3F04D06FF000427A
:1033500082EA2100704770B500F0C2F849922480DB
:1033600000207047F2E7B0FA80F310FA03F10AD0B8
:10337000C3F11D0303F580634FEA41504FEA035246
:1033800002EBD12170474FF000007047DFF848C1D1
:1033900070B51CEA111E1EBF1CEA13159EEA0C0F25
:1033A00095EA0C0F00F06F8081EA030423EA4C13C6
:1033B0004EEAD47E21EA4C1141F4801143F480138B
:1033C000AE44A1FB024CA0FB0365AEF17F7E361933
:1033D00055EB0C05A1FB034C4CF10003A0FB021CB8
:1033E00016EB0C06654153F10003094218BF46F085
:1033F000010613F4007F0BD14FEA03314FEA053089
:10340000340341EA155140EA16506FF003020AE016
:103410004FEAC3214FEAC520F40241EA555140EA80
:1034200056506FF0020202EB2E4201EB025585EA84
:10343000CE710AD05FEA440C18BF24F0004450F16A
:10344000000041F1000120EAD47040F2FE7C6245A8
:1034500000D270BDA84214BF4FF080444FF04044EA
:10346000002E08BF0024BEF1806FA8BFA1F1C041AB
:10347000BDE8704080F282804FF0000001F1C04151
:1034800001F0004170479EEA0C0F0CEA131518BFBB
:1034900095EA0C0F06D04FF0000081EA030E0EF003
:1034A000004170BD00F01CF88900013E00F007B833
:1034B00000F009B84FEA430C5FEA5C5C08D081EA8F
:1034C000030100F05BB84FEA410C5FEA5C5CF6D1A7
:1034D0004FF00000014970470000FF070000F87F2F
:1034E0000EF1020E2EF0030E5EF8046B364205D488
:1034F000012A43EB030515F5001F12D8012841EB03
:10350000010C1CF5001F0CD80ED14FEAD17C15F52B
:10351000001F0CEB4C0C0CF1020C08BF4CEBD37CE5
:1035200004E04FF0080C01E04FEAD37C0CEB4C05B3
:1035300026FA05F606F00706B6F1040C06D20EEBE5
:10354000860CBDE870404CF0010C6047DFE80CF0E1
:10355000090B02024FF000414FF00000A1F50021DD
:1035600070BD19461046012851EB010418BFD4F56F
:10357000001484BF002001F0004170BD0808A0F5D0
:1035800000114FEA3101704710B591EA030F48BFAF
:1035900083F000433FF5C0AC841A71EB030C07D2F3
:1035A00012198CF0004C43EB0C03001B61EB0C0177
:1035B000DFF8A4E14FEA1154A4EB135C1EEA430FB9
:1035C00018BF9EEA445F00F0B08023EA6E035242C7
:1035D00021EA0451C3EB6E0338BF5B1EDCF1200E01
:1035E00025D322FA0CFE10EB0E0043FA0CFE41EB41
:1035F0000E01CCF1200E03FA0EFE10EB0E0051F17D
:103600000001CCF1200E29D412FA0EF201EB045184
:10361000BDE8104058BF7047401C1CBFB2F1004FBE
:10362000704700280CBF491C20F00100704712EBC6
:10363000020E43EB030218BF4FF0010E4EEA4202A6
:10364000ACF1200CDCF11E0E54D943FA0CFE10EB49
:103650000E0051F1FF31CCF11E0ED5D50EF1010E49
:1036600012FA0EFE404141EB010101EB445C5FEABE
:103670005C5C10D910EBDE7001EB045138BFBEF179
:10368000004FBDE8104018BF704700280CBF491C10
:1036900020F00100704730D24FEAD42C11F5001110
:1036A00024F400641BD0B1FA81F20B3AA41AA41ED0
:1036B000D2F12003914030FA03F31943904001EB1B
:1036C000CC71002C01EB0451BDE81040A8BF70473D
:1036D00001F1C0414FF0000001F000417047B0FA25
:1036E00080F310FA03F100D110BDE41A173C48052D
:1036F000C90AE4E701EB045110BD491001EB045184
:10370000BDE810404FEA300002E04FF00001704782
:103710004A0008BF0042F8D0B2F5001F28BF70472A
:1037200001F000414FF0000070479EEA445F07D06F
:1037300011EA5E0FBDE8104004BF00210020704771
:10374000BDE8104070B5FFF7CBFE00BF40DFF63E8E
:1037500083F00041104670470000E0FF43004FEA4D
:10376000D30C4FEA3C0C43401FBF40070CF16051A3
:1037700013F0FE4F70471CF0006F03D100200CF0D7
:10378000004170470CF0004343EA507010B540EA26
:10379000CC0000F05CFA00BF000000924FEA00018C
:1037A000FFF7ECBE4FF000414FF00000A1F5002103
:1037B0007047000090EA010F48BF81F0004100F11E
:1037C000CA82421A3CBF801A89184FEAD0524FF081
:1037D0007F4C1CEA410FA2EBD15318BF9CEA026F49
:1037E00000F03B804FF0004C4CEA00204CEA0121F5
:1037F00021FA03FC10EB0C0C1ED202F1FF325FEA3F
:103800001C2040EBC25038BF70471CF07F0F4FEABE
:10381000400C18BFBCF17F4F38BF7047C3F1200385
:10382000994008BF20F00100BCF17F4F38BF7047BE
:10383000A0F1C04000F051BA4FEA3C00000A40EB52
:10384000C25028BF1CF0FF0F4FEA400CE6D018BF53
:10385000BCF17F4F38BF7047EAE79CEA026F05D0A2
:1038600010EA5C0F08BF00F00040704710B500F090
:10387000EEF900BF64FBBE3E401058BFC0F14040AF
:10388000491058BFC1F140418142EFF300807047B9
:103890004FF47F0C1CEAD0121EBF1CEAD11392EA2F
:1038A0000C0F93EA0C0F00F0858090EA010F48BFDF
:1038B00042F4807240F4000C41F400002CF07F418F
:1038C00020F07F4000B58142A2EB03020FF2081CFA
:1038D000ACEB504EC0F100009EF800E04FEA4E0EF7
:1038E00000FB0EFC38BF49004FEA2C1C02F5FA021F
:1038F0000CFB0EF34FEACE1E4FEA112C4FEAC1210A
:103900000EEB635E42EB22420EFB0CFC4FEA1C53B3
:1039100000FB03114FEA112C4FEA01310EFB0CFCA6
:103920004FEADC4C00FB0C11C14228BF09184CEBDC
:1039300003335DF804EB10EB410143EBC250B2F5E9
:103940007C0F38BF704729D512F0F00F1CBF00F173
:10395000C04000F0004070470081828384858687E4
:1039600088898B8C8D8E8F919293959697999A9C3E
:103970009D9FA0A2A3A5A7A8AAACAEB0B2B3B5B7AD
:10398000B9BCBEC0C2C5C7C9CCCED1D4D7D9DCDF83
:10399000E2E6E9ECF0F3F7FAFE0000004FEA400C33
:1039A0000CF1807CBCF17E4F28BF7047B0F1C04065
:1039B00000F093B990EA010F0CEAD11348BF42F42A
:1039C0008072624538BF634507D213F47F0F16D06B
:1039D00080EA010000F00040704710B500F037F9B0
:1039E000097EFC3E00F005B880EA010000F00040CE
:1039F000704780EA010000F0004000F06EB912F458
:103A00007F0F04BF0248704780EA010000F065B9EB
:103A10000000C07F41000B0ED3F19E0208D950F484
:103A200000034FEA032323FA02F048BF40427047E5
:103A300010B500F00CF900BF4992248000207047B7
:103A40006FF0004282EA200070470000C10DD1F102
:103A50009E0206DB4FEA002343F0004323FA02F004
:103A60007047004207D54FEA4001B1F1FE4F02D244
:103A70004FF00000704710B500F0E9F8499224803B
:103A8000002070476FEA20007047000010F00041EE
:103A900048BF4042B0FA80F310FA03F2C3F19D032D
:103AA0000BD051EAC35101EB1220530638BF7047C7
:103AB00000F1010008BF20F001007047B0FA80F368
:103AC00010FA03F2C3F19D030AD0D90501EB1220CD
:103AD000530638BF704700F1010008BF20F0010015
:103AE0007047000050EA010C00F113801CF5000F34
:103AF00058BFBCF5000F01D48842704707D710F5B6
:103B0000000F58BF11F5000F15D488427047894245
:103B100070471CF5000F04D5BCF5000FF7D58142A6
:103B200070474FF0807C1CEB400F38BF1CEB410FFF
:103B300001D28142704710B500F089F89224490003
:103B40004FF000504FF08051FFF796BE4FF47F0CBE
:103B50001CEAD0121EBF1CEAD11392EA0C0F93EAA2
:103B60000C0F00F0478090EA010F48BF42F48072CA
:103B70004FF0004C4CEA00204CEA012102EB03021A
:103B8000A0FB0113A2F50002002918BF43F00103B6
:103B90005B0028BF4FEA330342EB22425FEA132C5B
:103BA0004CEBC2502EBFBCEB436FB2F57C0F70479D
:103BB0004FEA036CBCF1004F08BF20F00100B2F5E2
:103BC0007C0F38BF70470BD582F0FF0212F5803FA3
:103BD000C8BF704700F1C040D8BF00F00040704738
:103BE00000F5000C5FEA4C0C48BF7047B0F1C040D4
:103BF00000F073B890EA010F0CEAD11348BF42F409
:103C00008072624538BF634504D280EA010000F04B
:103C10000040704710B500F01AF800BF8900013E5F
:103C200000F007B800F009B85FEA410C5FEA1C6CCD
:103C300008D080EA010000F050B85FEA400C5FEA6B
:103C40001C6CF6D14FF00040A0F5800070470EF1DB
:103C5000020E2EF0030E5EF8044B244204D44FEA09
:103C60004102B2F17F4F11D84FEA4003B3F17F4FC9
:103C70000CD80ED14FEAD07CB2F17F4F0CEB4C0C3C
:103C80000CF1020C08BF4CEBD17C04E04FF0080CA7
:103C900001E04FEAD17C0CEB4C0324FA03F404F06E
:103CA0000704B4F1040C06D20EEB840CBDE81040FE
:103CB0004CF0010C6047DFE80CF0070802024FF0FF
:103CC0000040A0F5800010BD0846420018BFD2F1A8
:103CD000807288BF00F0004010BDFF2141EAD05043
:103CE000C005704751EA000C00F113801CF5000F6D
:103CF00058BFBCF5000F01D48142704707D711F5BA
:103D0000000F58BF10F5000F15D48142704789424B
:103D100070471CF5000F04D5BCF5000FF7D588429D
:103D200070474FF0807C1CEB410F38BF1CEB400FFD
:103D300001D28842704780EA010081EA000180EAEE
:103D40000100FFF7F8BE000090EA010F48BF81F0C4
:103D500000413FF536AD421A04D882F00042A0EB94
:103D6000020011444FEAD0524FF07F4C1CEA410F41
:103D7000A2EBD15318BF9CEA026F4AD04FF0004C1F
:103D80004CEA00204CEA012121FA03FCB0EB0C0CB8
:103D90000FD412F0FE0F36D05FEA4C001DD5001292
:103DA00040EBC25038BF70471CF03F0F18BF704740
:103DB0000BE0A2F101025FEA1C2040EBC25038BFC9
:103DC00070471CF07F0F18BF7047C3F12003994064
:103DD00014BF401E20F00100704780084FEA1223F4
:103DE00008BF7047B0FA80FCA2EB0C02CCF1280CA3
:103DF00060FA0CF093EA122F04BF00EBC250704738
:103E00004FEAC3707047130A5FEADC1008BF7047BF
:103E1000F6E79CEA026F04D010EA5C0F08BF0020AE
:103E2000704710B5FFF713FF40DFF63E81F000400A
:103E300070470000000000000000000000000000CB
:103E400000003F4000000000000000003000400083
:103E500030004000000009000BC03D000BC03D00D9
:103E6000090018C024407FE0224031800000180083
:103E700024C01B000D803240018003801C4027407D
:103E80001C8007400040100060000000000000009F
:103E900000000000000000001F80204040200000C3
:103EA000402020401F8000000000090006001F8005
:103EB000060009000000040004003F800400040024
:103EC000000000100060000000000000000004007E
:103ED0000400040004000400000000000040000092
:103EE000000000000000002001C006003800400073
:103EF00000001F802040204020401F800000000064
:103F000010403FC000400000000018C02140224087
:103F100024401840000010802040244024401B8092
:103F2000000002000D0011003FC0014000003C8075
:103F3000244024402440238000001F80244024404B
:103F40003440038000003000200027C038002000EB
:103F500000001B802440244024401B8000001C00E3
:103F600022C0224022401F800000000000000840C4
:103F700000000000000000000000046000000000DD
:103F80000000000004000A001100208040400900E9
:103F900009000900090009000000000040402080DD
:103FA00011000A000400180020002340240018001B
:103FB00000001F802040274029401F400000004093
:103FC00007C039000F0001C0004020403FC024401E
:103FD00024401B8000001F80204020402040308073
:103FE000000020403FC0204020401F8000002040B3
:103FF0003FC024402E4030C0000020403FC024403D
:104000002E00300000000F0010802040224033803E
:10401000020020403FC0040004003FC02040204078
:1040200020403FC020402040000000602020202091
:104030003FC02000200020403FC024400B0030C083
:10404000204020403FC020400040004000C03FC012
:104050003C0003C03C003FC0000020403FC00C407B
:1040600023003FC020001F802040204020401F80B0
:10407000000020403FC024402400180000001F80A2
:104080002140214020E01FA0000020403FC02440EC
:10409000260019C0004018C024402440224031802E
:1040A0000000300020403FC02040300000002000D1
:1040B0003F80004000403F80200020003E0001C0C3
:1040C000070038002000380007C03C0007C0380057
:1040D0000000204039C0060039C020400000200008
:1040E000384007C0384020000000304021C0264042
:1040F000384020C00000000000007FE04020402049
:104100000000000070000C00038000400000000070
:10411000402040207FE00000000000002000400020
:10412000200000000000001000100010001000101F
:10413000001000000000400000000000000000002F
:1041400002800540054003C0004020003FC00440FD
:104150000440038000000000038004400440064047
:10416000000000000380044024403FC000400000E5
:1041700003800540054003400000000004401FC0CC
:10418000244024402000000002E005500550065065
:10419000042020403FC00440040003C00040000051
:1041A000044027C000400000000000100010041070
:1041B00027E00000000020403FC00140070004C08D
:1041C0000440204020403FC000400040000007C0A5
:1041D000040007C0040003C00000044007C00440FE
:1041E000040003C00040000003800440044003803A
:1041F0000000041007F00450044003800000000099
:1042000003800440045007F00010044007C002403F
:10421000040004000000000006400540054004C002
:104220000000000004001F80044000400000040063
:1042300007800040044007C000400400070004C09D
:10424000018006000400060001C0070001C006004E
:104250000000044006C0010006C004400000041035
:10426000071004E00180060004000000044005C0BF
:104270000640044000000000000004007BE04020F5
:104280000000000000000000FFF00000000000003F
:1042900040207BE00400000000004000800040005F
:1042A000200020004000000000000000000000008E
:1042B0000000000000000000000000001FCC000C07
:1042C000000000000000000008003000600008004E
:1042D000300060000000022003FC1E20022003FCCE
:1042E0001E200220000000000E1811043FFF108461
:1042F0000C78000000000F0010840F3800C0077811
:1043000018840078000000780F8410C411240E98DF
:1043100000E400840008080068007000000000004D
:1043200000000000000000000000000007E0181876
:10433000200440020000000040022004181807E09A
:104340000000000000000240024001800FF00180E8
:104350000240024000000080008000800FF80080D2
:104360000080008000000001000D000E0000000031
:10437000000000000000000000800080008000803D
:104380000080008000800000000C000C0000000095
:10439000000000000000000000060018006001801E
:1043A000060018002000000007F0080810041004A0
:1043B000080807F000000000080408041FFC0004BF
:1043C00000040000000000000E0C10141024104423
:1043D00011840E0C000000000C18100411041104CC
:1043E00012880C700000000000E003200424082460
:1043F0001FFC0024000000001F9810841104110409
:10440000108810700000000007F0088811041104E3
:1044100018880070000000001C00100010FC130041
:104420001C001000000000000E381144108410849D
:1044300011440E38000000000700088C104410449E
:10444000088807F00000000000000000030C030CC7
:104450000000000000000000000000010106000054
:104460000000000000000000008001400220041055
:10447000080810040000022002200220022002206E
:10448000022002200000000010040808041002208E
:1044900001400080000000000E001200100C106CA3
:1044A00010800F00000003E00C1813E4142417C45C
:1044B000082807D000000004003C03C41C4007404B
:1044C00000E4001C000410041FFC1104110411047A
:1044D0000E880070000003E00C1810041004100493
:1044E00010081C10000010041FFC1004100410041D
:1044F000080807F0000010041FFC1104110417C481
:1045000010040818000010041FFC1104110017C04B
:1045100010000800000003E00C1810041004104400
:104520001C780040000010041FFC108400800080F4
:1045300010841FFC10040000100410041FFC100461
:1045400010040000000000030001100110011FFE14
:1045500010001000000010041FFC110403801464FC
:10456000181C1004000010041FFC100400040004B8
:104570000004000C000010041FFC1F0000FC1F00C2
:104580001FFC1004000010041FFC0C04030000E0DA
:1045900010181FFC100007F0080810041004100485
:1045A000080807F0000010041FFC10841080108021
:1045B00010800F00000007F0081810241024101CB1
:1045C000080A07F2000010041FFC1104110011C0BA
:1045D00011300E0C000400000E1C11041084108415
:1045E00010441C3800001800100010041FFC1004B8
:1045F00010001800000010001FF810040004000450
:1046000010041FF8100010001E0011E0001C0070C4
:1046100013801C0010001FC0103C00E01F0000E0D1
:10462000103C1FC000001004180C163401C001C05B
:104630001634180C100410001C00130400FC1304A2
:104640001C00100000000804101C106410841304E7
:104650001C04101800000000000000007FFE400253
:10466000400240020000000030000C0003800060A7
:10467000001C0003000000004002400240027FFED8
:10468000000000000000000000002000400040008A
:1046900040002000000000010001000100010001B5
:1046A0000001000100010000400040002000000067
:1046B00000000000000000000098012401440144B3
:1046C000014400FC000410001FFC008801040104E8
:1046D00000880070000000000070008801040104E0
:1046E000010400880000000000700088010401043B
:1046F00011081FFC0004000000F8014401440144BB
:10470000014400C800000000010401040FFC110472
:10471000110411001800000000D601290129012907
:1047200001C90106000010041FFC00840100010003
:10473000010400FC000400000104190419FC000439
:104740000004000000000000000300010101190145
:1047500019FE0000000010041FFC0024004001B4FA
:10476000010C010400000000100410041FFC0004F0
:10477000000400000000010401FC0104010001FC30
:104780000104010000FC010401FC0084010001009F
:10479000010400FC0004000000F80104010401040D
:1047A000010400F80000010101FF0085010401047B
:1047B00000880070000000000070008801040104FF
:1047C000010501FF00010104010401FC0084010452
:1047D000010001800000000000CC0124012401241C
:1047E00001240198000000000100010007F8010405
:1047F000010400000000010001F8000400040004AE
:10480000010801FC0004010001800170000C00108F
:1048100001600180010001F0010C003001C0003096
:10482000010C01F0010000000104018C0074017012
:10483000018C01040000010101810171000E0018CA
:1048400001600180010000000184010C0134014479
:104850000184010C000000000000000000000100C5
:104860003EFC400240020000000000000000FFFF8C
:104870000000000000000000400240023EFC010079
:104880000000000000000000600080008000400088
:104890004000200020000000B84800080000002070
:1048A0003001000028010008EC4800083001002019
:1048B000580B000084010008B20114400D037C6015
:1048C0005B030C011E2370424B204104539643842A
:1048D000A24A04680901020304060708090C6910CA
:0C48E0007D020406082401410370803FA3
:04000005080000ED02
:00000001FF
